:020000040000FA
:100000000C9458010C9480010C9480010C94800194
:100010000C9480010C9480010C9480010C9480015C
:100020000C9480010C9480010C9480010C9480014C
:100030000C9480010C9480010C9480010C9480013C
:100040000C94BE1D0C9480010C942E1E0C94081E62
:100050000C9480010C9480010C9480010C9480011C
:100060000C9480010C94800100407A10F35A00A097
:10007000724E18090010A5D4E80000E87648170071
:1000800000E40B54020000CA9A3B000000E1F505B1
:10009000000080969800000040420F000000A086FB
:1000A00001000000102700000000E803000000002D
:1000B0006400000000000A000000000001000000D1
:1000C00000002C76D888DC674F0823DFC1DFAE59EB
:1000D000E1B1B796E5E3E453C63AE651997696E87E
:1000E000E6C28426EB898C9B62ED407C6FFCEFBC02
:1000F0009C9F40F2BAA56FA5F490055A2AF75C932D
:100100006B6CF9676DC11BFCE0E40D47FEF520E662
:10011000B500D0ED902E0300943577050080841E45
:10012000080000204E0A000000C80C333333330FA0
:10013000986E12831141EF8D2114893BE65516CF3D
:10014000FEE6DB18D1844B381BF77C1D901DA4BB49
:10015000E424203284725E228100C9F124ECA1E5FE
:100160003D2725732573007B227375636365737365
:10017000223A66616C73652C22636F6465223A349F
:1001800030347D007B2273756363657373223A7428
:100190007275652C22726573756C74223A22257310
:1001A000227D007B2273756363657373223A7472D8
:1001B00075652C2272656C6179223A25752C227541
:1001C0007074696D65223A256C757D00676574539E
:1001D00074617475730073657452656C6179007B2A
:1001E0002274656D7065726174757265223A25734B
:1001F0002C2268756D6964697479223A25732C2202
:100200006C6D333554656D70223A25732C227669F6
:1002100062726174696F6E223A25752C226D61637A
:1002200068696E65537461747573223A25752C2262
:1002300072656C61795374617465223A25752C225C
:1002400073656E736F724572726F72223A25757D97
:100250000000000000240027002A00000000002504
:100260000028002B00000000080002010000030429
:10027000070000000000000000000000002300262E
:10028000002900040404040404040402020202021B
:10029000020303030303030102040810204080014A
:1002A000020408102001020408102000601EF32739
:1002B00011241FBECFEFD8E0DEBFCDBF12E0A0E01B
:1002C000B1E0E0E9F3E602C005900D92A03BB10772
:1002D000D9F725E0A0EBB2E001C01D92A038B2072B
:1002E000E1F711E0C7E5D1E004C02197FE010E94CB
:1002F0001B30C635D107C9F70E945F1F0C94BB3174
:100300000C940000CF93DF93EC01FA013296E60FD4
:10031000F71FDC019D012C1B3D0BCF01861B970BAA
:100320004D91442311F04193F5CFAC01421B530B87
:10033000640F751FFB013297308361507109FB0117
:100340002083DF91CF9108958CBD9DBD089520E35A
:10035000FC0120833296862F82958F706F706A30F1
:1003600030F4605D6293682F8111F5CF0895695C68
:10037000F9CFCF92DF92EF92FF92CF93DF93B091BC
:100380003205A0E08111AB2F8091330590E0880FFA
:10039000991FAC0147585D4FC0903805D090390582
:1003A000E0903A05F0903B0530E020E0FA01C5917D
:1003B000D491E881B90190E080E0EB23EA130AC010
:1003C0002F5F3F4F6C157D058E059F0578F36FEF0E
:1003D0007FEFCB01DF91CF91FF90EF90DF90CF9037
:1003E0000895FC01818D928D08950895833081F0E8
:1003F00028F4813099F08230A9F008958730A9F06F
:100400008830C9F08430B1F4809180008F7D03C0C2
:10041000809180008F7780938000089584B58F77D6
:1004200084BD089584B58F7DFBCF8091B0008F7718
:100430008093B00008958091B0008F7DF9CF1F9315
:10044000CF93DF93282F30E0F901EB59FD4F8491D2
:10045000F901E956FD4FD491F901ED57FD4FC491D3
:10046000CC23A9F0162F81110E94F601EC2FF0E0A9
:10047000EE0FFF1FE55AFD4FA591B4918FB7F89489
:10048000EC91111108C0D095DE23DC938FBFDF9172
:10049000CF911F910895DE2BF8CFCF93DF9390E09B
:1004A000FC01E956FD4F24918D579D4FFC0184912D
:1004B0008823D1F090E0880F991FFC01EF5AFD4F7F
:1004C000A591B491FC01E55AFD4FC591D4916230DC
:1004D00071F49FB7F8943C91822F809583238C937D
:1004E000E8812E2B28839FBFDF91CF9108958FB78E
:1004F000F894EC912E2B2C938FBFF6CF8E50806406
:1005000080937C0080917A00806480937A0080914F
:100510007A0086FDFCCF8091780090917900089553
:100520003FB7F89480911F0490912004A09121047A
:10053000B091220426B5A89B05C02F3F19F0019663
:10054000A11DB11D3FBFBA2FA92F982F8827BC012D
:10055000CD01620F711D811D911D42E0660F771F55
:10056000881F991F4A95D1F708958F929F92AF9255
:10057000BF92CF92DF92EF92FF924B015C010E94FB
:1005800090026B017C010E9490026C197D098E091A
:100590009F09683E734081059105A8F321E0821A06
:1005A0009108A108B10888EEC80E83E0D81EE11CAE
:1005B000F11C81149104A104B10429F7FF90EF907C
:1005C000DF90CF90BF90AF909F908F9008952FB7FE
:1005D000F89460911B0470911C0480911D0490910B
:1005E0001E042FBF0895CF92DF92EF92FF920F93D8
:1005F0001F93CF93DF93CDB7DEB7C054D1400FB672
:10060000F894DEBF0FBECDBF0E94E7020091340513
:100610001091350520913605309137056B017C012D
:10062000C01AD10AE20AF30A97018601003D174079
:100630002105310590F480913C05C05CDE4F0FB67A
:10064000F894DEBF0FBECDBFDF91CF911F910F9108
:10065000FF90EF90DF90CF900895609334057093F2
:100660003505809336059093370510922F0510922B
:100670002E0510922D0510922C0510922B0562E08C
:10068000809130050E944D0261E070E080E090E0D2
:100690000E94B50261E0809130050E944D0260E049
:1006A000809130050E941F02809131058551823072
:1006B00020F58BE291E10197F1F762E0809130053E
:1006C0000E944D0280913D0590E08230910538F006
:1006D000880F991F880F991F05970197F1F7F894D4
:1006E00080E00E94B9016F3F7F4F8F4F9F4F61F4B1
:1006F00010923C05789480E0A0CF64E170E080E047
:1007000090E00E94B502D9CF81E00E94B9016F3F0D
:100710007F4F8F4F9F4F61F38E010F5F1F4F6E0111
:100720002FEBC21A2EEFD20A780180E00E94B901A5
:10073000F701608371838283938381E00E94B90112
:10074000F7016483758386839783F8E0EF0EF11CCD
:10075000EC14FD0451F7789430E020E0F801C080FB
:10076000D180E280F3804481558166817781FFEFFB
:10077000CF16DF06EF06FF0631F04F3F8FEF580729
:100780006807780719F410923C05B5CFF90183E0AA
:10079000F595E7958A95E1F7E55DFA4F8081880F39
:1007A000C416D506E606F70610F180832F5F3F4F8B
:1007B000085F1F4F2832310589F640912F0520919F
:1007C0002B0580912C05280F3327331F80912D0591
:1007D000280F311D80912E05820F932F911D99278F
:1007E0004817190681F681E080933C0526CF816089
:1007F000DCCFAF92BF92CF92DF92EF92FF920F9336
:100800001F93CF93DF936C017B018B01040F151FA6
:10081000EB015E01AE18BF08C017D10759F069910E
:10082000D601ED91FC910190F081E02DC601099572
:10083000892B79F7C501DF91CF911F910F91FF901F
:10084000EF90DF90CF90BF90AF900895FC01538D53
:10085000448D252F30E0842F90E0821B930B54179A
:1008600010F0CF96089501970895FC01918D828D27
:10087000981761F0A28DAE0FBF2FB11D5D968C91C0
:10088000928D9F5F9F73928F90E008958FEF9FEFFF
:100890000895FC01918D828D981731F0828DE80FBB
:1008A000F11D858D90E008958FEF9FEF0895FC0175
:1008B000918D228D892F90E0805C9F4F821B910942
:1008C0008F739927089580E494E00E94570421E0F3
:1008D000892B09F420E0822F089580E090E0892B95
:1008E00029F00E94630481110C9400000895FC011A
:1008F000A48DA80FB92FB11DA35ABF4F2C91848D81
:1009000090E001968F739927848FA689B7892C93DD
:10091000A089B1898C91837080648C93938D848D30
:10092000981306C00288F389E02D80818F7D808333
:100930000895EF92FF920F931F93CF93DF93EC01F3
:1009400081E0888F9B8D8C8D98131AC0E889F98976
:10095000808185FF15C09FB7F894EE89FF89608379
:10096000E889F98980818370806480839FBF81E0FA
:1009700090E0DF91CF911F910F91FF90EF9008953C
:10098000F62E0B8D10E00F5F1F4F0F731127E02E17
:100990008C8D8E110CC00FB607FCFACFE889F9894F
:1009A000808185FFF5CFCE010E947704F1CFEB8DDA
:1009B000EC0FFD2FF11DE35AFF4FF0829FB7F89423
:1009C0000B8FEA89FB8980818062CFCFCF93DF9341
:1009D000EC01888D8823B9F0AA89BB89E889F98957
:1009E0008C9185FD03C0808186FD0DC00FB607FC8C
:1009F000F7CF8C9185FFF2CF808185FFEDCFCE01BF
:100A00000E947704E9CFDF91CF910895CF93DF93D0
:100A1000FC01A481B581109711F480E029C0EC019C
:100A2000ED91FC9111970688F789E02DCD0109958C
:100A30002FA138A5811119C0232B79F78DEF9FEFD6
:100A400098A78FA38C819D81DC01ED91FC9106809C
:100A5000F781E02D09958C819D81DC01ED91FC9160
:100A60000488F589E02D0995D8CF81E0232BA9F6DC
:100A7000DF91CF910895CF92DF92EF92FF920F9383
:100A80001F93CF93DF9300D000D0CDB7DEB78C019A
:100A9000F90180E0DE0111967D019E2F9F77EE0F18
:100AA000EF2FEE1FFF0BF195309709F09068D701FB
:100AB000A80FB11D9C938F5F309779F790E0FA01F2
:100AC000E81BF90B6483FA01E81BF90B3596D70193
:100AD000BD016E197F09681779071CF46D91619348
:100AE000F7CFFC013196D80114968D919C917F012E
:100AF000E20EF31EBA016E1B7F0B6B5F7F4FDC01B2
:100B0000ED91FC910280F381E02DA70109956C0124
:100B10000E94E702F801608B718B828B938B81E0DE
:100B2000EC14FD0409F080E00F900F900F900F90EF
:100B3000DF91CF911F910F91FF90EF90DF90CF90B9
:100B40000895EF92FF920F931F93CF93DF93EC01E1
:100B50008B017A010E94E702688B798B8A8B9B8BD1
:100B60008C819D81DC01ED91FC910280F381E02D6F
:100B7000A701B801DF91CF911F910F91FF90EF90E6
:100B800009941F93CF93DF93EC01162F0E94E70285
:100B9000688B798B8A8B9B8B8C819D81DC01ED919D
:100BA000FC910190F081E02D612FDF91CF911F9199
:100BB00009948F929F92AF92BF92CF92DF92EF9261
:100BC000FF920F931F93CF93DF93EC018B010E9451
:100BD000E7024B015C018C819D81DC01ED91FC9170
:100BE0000084F185E02D0995892BA9F40E94E70284
:100BF0006B017C01C818D908EA08FB082C853D85E3
:100C0000A8EEB3E00E94392EC616D706E806F9060C
:100C100010F380E00CC08C819D81DC01ED91FC9192
:100C20000284F385E02D0995F801808381E0DF914E
:100C3000CF911F910F91FF90EF90DF90CF90BF90D9
:100C4000AF909F908F9008953F924F925F926F92D6
:100C50007F928F929F92AF92BF92CF92DF92EF924C
:100C6000FF920F931F93CF93DF93CDB7DEB76497B7
:100C70000FB6F894DEBF0FBECDBF8C016B01DC0157
:100C800016966D917C910E94D90581111BC060E080
:100C900070E0CB0164960FB6F894DEBF0FBECDBFF7
:100CA000DF91CF911F910F91FF90EF90DF90CF9048
:100CB000BF90AF909F908F907F906F905F904F907C
:100CC0003F900895D8011696ED91FC9130801982DD
:100CD000E1E0F0E0FB83EA83412C512C3201812CCE
:100CE000912C54018394BE016F5F7F4FC8010E9415
:100CF000D905882361F2EA80FB80BFEFEB1AFB0A7B
:100D00008981D8011696ED91FC912A813B81E20FF1
:100D1000F31F8083E981AE2FAF77B0E0A501940186
:100D20000E94CD2D460E571E681E791E37E0880C96
:100D3000991CAA1CBB1C3A95D1F7E7FD44C0332D82
:100D4000307F332E8FEF8E0DD6018C93B0E33B13A3
:100D500053C0F801668177816E0D7F1DC8010E9426
:100D6000D905882309F493CFD80116966D917C910B
:100D70008A819B810296680F791FC8010E94D9055C
:100D8000882309F484CFEA80FB80B3E0EB0EF11CEA
:100D9000D8011696ED91FC91D6018C91DF01A80F38
:100DA000B11D11968C91119790E0982F882712967B
:100DB0002C91820F911D208121FD0296F2E0E0E04E
:100DC00030E020E01FC0FB82EA8297012530310528
:100DD00009F089CF8FEF9FEFD80198969C938E935F
:100DE000979714968D919C91DC01ED91FC9104886C
:100DF000F589E02D09954BCFF0E0E0E030E020E010
:100E000090E080E0A70170E060E08F2E9E2EA32E80
:100E1000B22E481959096A097B094E835F83688796
:100E200079879C0150E040E02B873C874D875E87A7
:100E30004E815F8168857985480D591D6A1D7B1D2E
:100E40004A835B836C837D8384149504A604B70472
:100E500008F051C0BE016F5F7F4FC8010E94D905E5
:100E6000882309F414CFD80195960D90BC91A02D3C
:100E7000BC8BAB8BAB2B49F1B0E33B1226C0F60128
:100E800020814EEF5FEF6FEF7FEF421B5109610949
:100E900071098A819B81AC81BD81480F591F6A1FEE
:100EA0007B1F8B859C85AD85BE8584179507A6071E
:100EB000B70758F4AB89BC89ED91FC91119701906B
:100EC000F081E02D6981CD010995F801808591853A
:100ED000E816F90650F489810680F781E02DEE0DC1
:100EE000FF1D8083FFEFEF1AFF0A2FEF821A920A8D
:100EF000A20AB20A9DCFD80195968D919C919697A2
:100F0000892B81F418968D919C91B0E0A0E02A8104
:100F10003B814C815D8182179307A407B50710F4CC
:100F2000F12CE12CB70190E080E0B4CEFC012081EF
:100F30002EBD9B012150310941F051810DB407FEB6
:100F4000FDCF4EB55EBD4193F5CF61507109860F5F
:100F5000971F0DB407FEFDCF2EB5FC012083089529
:100F6000E091B602F091B70280819091B502892B91
:100F700080830895E091B602F091B702908180914C
:100F8000B50280958923808308958EBD00000DB43D
:100F900007FEFDCF8EB50895AF92BF92CF92DF923C
:100FA000EF92FF920F931F93CF93DF93CDB7DEB7EE
:100FB00028970FB6F894DEBF0FBECDBF8C017B0122
:100FC0006A0180913F048333E1F45801A40EB51EF9
:100FD000A016B10609F46FC00E94BA0780EF0E9404
:100FE000C507812F0E94C507802F0E94C5070F5F8C
:100FF0001F4FF70181917F010E94C5070E94B00732
:10100000E7CF5B01A40EB51E8433C1F40E94BA077A
:1010100019830A838D2D80688B83CC8264E070E015
:10102000CE0101960E949607AE14BF0409F441C098
:10103000F70181917F010E94C507F6CF0E94BA0790
:101040000F3F110509F028F419820A8384E08B838D
:101050000CC017FD17C019820A8333E01695079557
:101060003A95E1F7007E0C600B8386E0C816D10448
:10107000A0F5F701DE011496EA15FB0599F08191C0
:101080008D93FACFC80126E0969587952A95E1F7CA
:10109000807E19830A830115104C10F48461D7CF28
:1010A0008C61D5CFB6016D5F7F4FCE0101960E9456
:1010B00096070E94B007C60128960FB6F894DEBFC7
:1010C0000FBECDBFDF91CF911F910F91FF90EF9099
:1010D000DF90CF90BF90AF90089563E070E0CE01B5
:1010E00001960E949607F70181917F010E94C50732
:1010F000AE14BF04C1F7DDCFCF93DF931F92CDB7FE
:10110000DEB7898341E050E0BE016F5F7F4F90E022
:1011100080E00E94CC070F90DF91CF91089590E07E
:1011200020913F04233339F40C96982F990F990F8F
:10113000990F80E008954896F8CFDA01E091B9025E
:10114000F0E0FE2FEE27E60FF71F90E0982F88279C
:10115000A901BD018E0F9F1F0C94CC07CF93DF9385
:1011600000D0CDB7DEB779836A8322E030E0AE01EC
:101170004F5F5F4F60E170E00E949D080F900F90FD
:10118000DF91CF910895CF93DF9300D0CDB7DEB735
:1011900079836A8322E030E0AE014F5F5F4F64E005
:1011A00070E00E949D080F900F90DF91CF910895FD
:1011B000CF93DF931F92CDB7DEB72091B90230E015
:1011C000322F2227260F371F90E0982F8827498338
:1011D00041E050E0BE016F5F7F4F820F931F0E947E
:1011E000CC070F90DF91CF910895CF93DF931F929B
:1011F000CDB7DEB76983DC01ED91FC910280F3810C
:10120000E02D41E050E0BE016F5F7F4F09950F90E8
:10121000DF91CF9108950895FC019485FB018485A9
:10122000981303C081E0943008F080E00895CF93D4
:10123000DF931F92CDB7DEB76983DC01ED91FC919E
:101240000280F381E02D41E050E0BE016F5F7F4FEF
:1012500009950F90DF91CF91089544E050E0BC01D3
:101260008FE090E00C94CC070895FF920F931F93AA
:10127000CF93DF93EB01FC01178A168A2A81211193
:1012800009C02B81211106C02C81211103C02D81A1
:10129000222301F141155105E9F08A01FC01F08C8E
:1012A00080E591E00E94A401AE014E5F5F4F24E013
:1012B00030E06CE070E08F2D0E949D08B8018F2D0A
:1012C0000E94AE0881E090E0DF91CF911F910F91D5
:1012D000FF90089580E0F7CFFC01848595850895FF
:1012E000FC018489958908952DE931E0FC01318361
:1012F0002083FB014089518962897389FC01428303
:101300005383648375830895DC01ED91FC91048C13
:10131000F58DE02D099490E080E00895FC0176873A
:1013200065870895DC01ED91FC9102A0F3A1E02D09
:10133000099591E089270895862F089581E08627F1
:10134000089521E0FC018485843008F020E0822F9C
:1013500008950895AF92BF92CF92DF92EF92FF92DD
:101360000F931F93CF93DF937C016B01EA018901F7
:101370000E940605882309F442C0D7011896AD9053
:10138000BC90B501C6010E94C9289801295F3F4F52
:10139000820F931FA816B90690F1F7016681778135
:1013A00045E050E0C6010E948201BE01600F711F3E
:1013B000FE01EC01CE1BDF0B6E01CE0EDF1ED7014E
:1013C00016964D915C916E177F0731F02191D601F1
:1013D000A40FB51F2C93F0CF055011099801280FC9
:1013E000391F60E3C701DF91CF911F910F91FF90EB
:1013F000EF90DF90CF90BF90AF900C943B0580E0D2
:10140000DF91CF911F910F91FF90EF90DF90CF90E0
:10141000BF90AF900895CF92DF92EF92FF920F931B
:101420001F93CF93DF93CDB7DEB7C054D1090FB66A
:10143000F894DEBF0FBECDBF8B019F938F938FE9D2
:1014400091E09F938F9382E691E09F938F931F92F9
:1014500080E48F93CE0101966C019F938F930E943D
:10146000D428E090B302F090B4020FB6F894DEBF37
:101470000FBECDBF90E080E00115110531F0F701FE
:1014800060857185C8010E94C9289C01A801B60128
:10149000C7010E94AA09C05CDF4F0FB6F894DEBFF7
:1014A0000FBECDBFDF91CF911F910F91FF90EF90B5
:1014B000DF90CF900895CF93DF93EC0187E691E022
:1014C0009F938F938091B0021F928F938091B2026D
:1014D0008F938091B1028F930E94D4280F900F9028
:1014E0000F900F900F900F906091B1027091B20227
:1014F000CE01DF91CF910C940B0AAF92BF92CF92A5
:10150000DF92EF92FF920F931F93CF93DF9300D060
:1015100000D0CDB7DEB78C016B017A0180913F041A
:101520008333E9F45B016801C40ED51EC016D106F1
:10153000A9F10E94BA078FE00E94C507812F0E947F
:10154000C507802F0E94C5070F5F1F4F80E00E94D4
:10155000C507F50181935F010E94B007E7CF84338F
:1015600069F50E94BA0719830A838F2D8F778B83C1
:10157000EC8264E070E0CE0101960E949607A7011C
:1015800070E060E0C6010E946E31E114F10421F0C8
:10159000B701C6010E9496070E94B007C7010F90CD
:1015A0000F900F900F90DF91CF911F910F91FF90AF
:1015B000EF90DF90CF90BF90AF9008950E94BA0750
:1015C0000F3F110509F030F419820A831B8263E092
:1015D00070E0D1CF17FD0BC019820A8333E0169556
:1015E00007953A95E1F7007E08600B83F0CFC801BC
:1015F00026E0969587952A95E1F7807E19830A83E0
:101600000115104C18F480618B83E1CF8861FCCF09
:10161000CF93DF931F92CDB7DEB72091B90230E0B0
:10162000322F2227260F371F90E0982F882741E07E
:1016300050E0BE016F5F7F4F820F931F0E947D0AB3
:1016400089810F90DF91CF910895CF93C82F462FB6
:1016500061E070E00E94D80861E070E08C2F0E9489
:10166000080B8111F9CFCF910895CF93C82F80E552
:1016700091E00E94A40168E070E08C2FCF910C945F
:10168000250BCF93C82F80E591E00E94A40160E173
:1016900070E08C2FCF910C94250BCF93DF93EC014E
:1016A000888D843020F40E94410B84E0888FDF9184
:1016B000CF910895CF93C82F80E591E00E94A401B7
:1016C00063E070E08C2FCF910C94080BCF93DF93E5
:1016D000EC018C858430D0F40E945A0B843189F05F
:1016E000882379F0883169F021E08C3159F4E88160
:1016F000F9810084F185E02DCE01099521E0892B47
:1017000009F420E0822FDF91CF91089580E0FBCF94
:10171000CF92DF92EF92FF92CF93DF93EC018C8513
:10172000843068F40E94350B0E94E7026B017C0153
:101730008C850E945A0B811109C084E08C87DF914F
:10174000CF91FF90EF90DF90CF90089561E070E02F
:1017500080E090E00E94B5020E94E702AB01BC016C
:101760004C195D096E097F098D859E85B0E0A0E06A
:10177000481759076A077B07D8F28C850E94410BEE
:10178000DCCFCF93FC01C08D80E591E00E94A401E5
:1017900060E270E08C2F0E94250B62E070E08C2FDD
:1017A0000E94080B84FD16C062E070E08C2F0E943E
:1017B000080B83FF0AC048E162E070E08C2F0E94B2
:1017C000D80880E090E0CF91089580E591E00E94F4
:1017D000A401E3CF40E162E070E08C2F0E94D808C2
:1017E00081E0F0CFCF93DF931F92CDB7DEB741E01A
:1017F00050E0BE016F5F7F4F90E080E00E947D0A65
:1018000089810F90DF91CF910895CF93DF93C4E149
:10181000D0E00E94F20B882361F061E070E080E08C
:1018200090E00E94B5022197A1F780E0DF91CF916F
:10183000089581E0FBCF1F93CF93DF931F92CDB725
:10184000DEB7182F80E591E00E94A401812F0E944D
:101850008F0827E0129FF0011124ED5DFB4F2281DC
:101860003381377041E050E0BE016F5F7F4F820FE0
:10187000931F0E947D0A89810F90DF91CF911F9164
:101880000895FC01808D843040F4218D328D232B0E
:1018900021F00E941B0C90E008958FEF9FEF0895B8
:1018A000CF93DF93FC012485243028F08FEF9FEF46
:1018B000DF91CF910895EC010190F081E02D00843B
:1018C000F185E02D0995892B89F38C850E941B0CED
:1018D00090E0EECFDA01E091B902F0E0FE2FEE27C2
:1018E000E60FF71F90E0982F8827A901BD018E0F02
:1018F0009F1F0C947D0A8F929F92AF92BF92CF92BE
:10190000DF92EF92FF921F93CF93DF93CDB7DEB7B5
:101910002C970FB6F894DEBF0FBECDBF20913F04C9
:1019200014E0222339F16B017C0180E591E00E94F3
:10193000A4015E0127E0A20EB11C450110E063E0A6
:1019400070E0812F0E94080BF40181934F018823DE
:1019500049F11F5F143099F710E0F50181915F01A3
:101960008D31D9F08831C9F08A518230B0F01F5FD3
:10197000143099F7812F2C960FB6F894DEBF0FBE66
:10198000CDBFDF91CF911F91FF90EF90DF90CF906F
:10199000BF90AF909F908F90089560E170E0812F8D
:1019A0000E94250BA12EB12C83EE93E00197F1F755
:1019B00042E870E060E0812F0E94D8084FEF62E0BB
:1019C00070E0812F0E94D808B601C114D10491F4AF
:1019D000809106019091070101968115F0EC9F0717
:1019E00008F45CC0909307018093060160910601A2
:1019F00070910701812F0E94C30886E0E2E1F1E0C7
:101A0000DE01119601900D928A95E1F7F70183812D
:101A10008F778C8384818D8385818E83A7014E5F30
:101A20005F4F24E030E06CE070E0812F0E949D0861
:101A3000B601812F0E94AE0826E030E0AE014F5F74
:101A40005F4F66E070E0812F0E949D0861E070E0CA
:101A5000812F0E94250B27E02A9DC0012B9D900D10
:101A600011249C012D5D3B4F7901F90111821082F7
:101A700022E030E0AE01455F5F4F68E270E0812F09
:101A80000E946A0C8B859C85982789279827F701E7
:101A9000938382831682158214826CCF80E090EC4F
:101AA000A1CFCF92DF92EF92FF920F931F93CF932C
:101AB000DF9300D000D000D0CDB7DEB78C016B0132
:101AC0007A01FC01808D843010F40E94410B8DE975
:101AD00091E09A838983F60182819381A481B58103
:101AE0008B839C83AD83BE83B701CE0101960E9498
:101AF0007B0CF801808F8430A0F4F586E486128E8A
:101B0000118E81E026960FB6F894DEBF0FBECDBFD2
:101B1000DF91CF911F910F91FF90EF90DF90CF90C9
:101B2000089580E0EFCFAF92BF92CF92DF92EF9215
:101B3000FF920F931F93CF93DF9300D000D000D07C
:101B4000CDB7DEB7082F6B0180E591E00E94A401BC
:101B50009E012F5F3F4F7901590110E063E070E073
:101B6000812F0E94080BF50181935F01882341F1C9
:101B70001F5F143099F710E0F70181917F018D31DB
:101B8000D1F08831C1F08A518230A8F01F5F143043
:101B900099F7812F26960FB6F894DEBF0FBECDBF02
:101BA000DF91CF911F910F91FF90EF90DF90CF9039
:101BB000BF90AF90089560E170E0812F0E94250BE7
:101BC000E12EF12C83EE93E00197F1F7402F70E0C6
:101BD00060E0812F0E94D8084FEF62E070E0812F13
:101BE0000E94D808B601CD2889F480910601909111
:101BF000070101968115F0EC9F0798F1909307017A
:101C0000809306016091060170910701812F0E9467
:101C1000C30861E070E0812F0E94250B27E02E9D14
:101C2000C0012F9D900D11249C012D5D3B4F79012A
:101C3000F9011182108222E030E0AE014B5F5F4F6C
:101C400068E270E0812F0E946A0C8D819E81982746
:101C500089279827F701938382831682158214823D
:101C600098CF80E090ECCACFCF92DF92EF92FF92B4
:101C70001F93CF93DF93EC017B016A018C85843045
:101C800048F40E945A0B882319F08C850E94350B6A
:101C900084E08C87F70182819381A481B5810097CC
:101CA000A105B10551F490E080E0DF91CF911F9143
:101CB000FF90EF90DF90CF9008958F3F9F4FAF4FF1
:101CC000BF4F89F380913F04811103C084E08C876A
:101CD000EACF70E060E081E20E94930D182F8C87BC
:101CE000843008F780E591E00E94A401A7014E5FCF
:101CF0005F4F24E030E06CE070E0812F0E949D088F
:101D0000B601812F0E94AE0864E070E0812F0E942E
:101D1000250B0E94E7026B017C018C850E945A0B07
:101D2000873109F18C31F9F0882309F4BCCF0E9486
:101D3000E702AB01BC014C195D096E097F098D8575
:101D40009E85B0E0A0E084179507A607B70738F096
:101D500061E070E080E090E00E94B502DECF8C850B
:101D60000E94410BB3CF81E090E09FCF0F931F9370
:101D7000CF93DF93EC018B01888D843010F40E94A7
:101D8000410B80913F04811107C094E0988FDF914F
:101D9000CF911F910F910895B80182E00E94930D99
:101DA000888F843030F41D870C871A8E198E81E05D
:101DB000EECF80E0ECCF7F928F929F92AF92BF9256
:101DC000CF92DF92EF92FF920F931F93CF93DF9307
:101DD00000D0CDB7DEB7782E8B014A01590122E041
:101DE00030E0AE014F5F5F4F64E270E00E946A0C2A
:101DF000E980FA80FE24EF24FE24E00EF11E970114
:101E0000377040913F04072D10E0433309F042C082
:101E1000085F1F4F102F0027110F110F110FC9015D
:101E2000800F911F4733C9F1A9014A0D5B1D413055
:101E3000584098F160E078E06B01C21AD30AA6011D
:101E4000B4010E94CC07A5014C195D09B4016C0DC9
:101E50007D1DC8010E94CC07EA0CFB1CF982EA82B6
:101E600022E030E0AE014F5F5F4F64E270E0872D0B
:101E70000E949D080F900F90DF91CF911F910F91BD
:101E8000FF90EF90DF90CF90BF90AF909F908F909A
:101E90007F900895005F1F4FBDCFA501B401DACF39
:101EA000EF92FF921F93CF93DF9300D0CDB7DEB7B1
:101EB000182F22E030E0AE014F5F5F4F60E270E02C
:101EC0000E946A0CE980FA80FE24EF24FE2422E0BE
:101ED00030E0AE014F5F5F4F60E270E0812F0E9403
:101EE0006A0C89819A81982789279827E816F9062C
:101EF00089F487E0189FF0011124ED5DFB4FF58216
:101F0000E482C7010F900F90DF91CF911F91FF9056
:101F1000EF9008957C01DBCF1F93CF93DF93182FB1
:101F200080E591E00E94A401812F0E94500FEC01F6
:101F300063E070E0812F0E94080B873121F08C3123
:101F400011F0D0E0C0E0CE01DF91CF911F91089554
:101F5000CF93DF93EC018C85843060F40E945A0BA0
:101F6000873111F08C3131F48C850E948C0F8115F2
:101F7000984088F3DF91CF910895FC0184858430E7
:101F800010F40C948C0F90E080E008959F92AF9233
:101F9000BF92CF92DF92EF92FF920F931F93CF9356
:101FA000DF938C015B01942EE52EFC01C688D78857
:101FB000F08C80E591E00E94A4018F2D0E94500FCB
:101FC000C92DDE2D8C179D0708F4EC019E01A5019B
:101FD000B6018F2D0E94DB0EF801868997898C0F40
:101FE0009D1F978B868BCE01DF91CF911F910F9113
:101FF000FF90EF90DF90CF90BF90AF909F900895AB
:102000008F929F92AF92BF92CF92DF92EF92FF9208
:102010000F931F93CF936C015B018A01FC01C48570
:10202000C430F0F57A014130584018F0E12C88E0D6
:10203000F82E80E591E00E94A4018C2F0E94500FA1
:102040004C0163E070E08C2F0E94080B873111F087
:102050008C3149F58E149F0460F380E591E00E9475
:10206000A4019701A50170E060E08C2F0E94DB0EB7
:1020700060E270E08C2F0E94250B62E070E08C2FF4
:102080000E94080B84FD17C063E070E08C2F0E9453
:10209000080B81110BC081E090E0F60193838283ED
:1020A00010E000E010C0F12CE12CD7CF80E591E0EA
:1020B0000E94A401E2CF40E162E070E08C2F0E9418
:1020C000D808EF2841F3C801CF911F910F91FF90DD
:1020D000EF90DF90CF90BF90AF909F908F9008953A
:1020E000FF920F931F93CF93DF9300D0CDB7DEB74E
:1020F000F82E22E030E0AE014F5F5F4F66E270E005
:102100000E946A0C09811A8110270127102722E0FA
:1021100030E0AE014F5F5F4F66E270E08F2D0E94AE
:102120006A0C89819A8198278927982708171907A7
:1021300049F4C8010F900F90DF91CF911F910F913B
:10214000FF9008958C01E3CF1F93CF93DF93182F57
:1021500087E0189FE0011124CD5DDB4F88819981D4
:10216000009761F480E591E00E94A401812F0E9414
:1021700070102E81821B910999838883DF91CF9102
:102180001F910895FC018485843010F40C94A410F0
:1021900090E080E008954F925F927F928F929F929D
:1021A000AF92BF92CF92DF92EF92FF920F931F9365
:1021B000CF93DF9300D0CDB7DEB7782E6B014A0105
:1021C000A82EB12C27E0829FC0011124FC01ED5DF7
:1021D000FB4F7F010081118180E591E00E94A40105
:1021E0000815190554F4872D0E947010F7012681F7
:1021F0008C01021B1109118300830115110529F5BA
:1022000063E070E0872D0E94080B843159F0882329
:1022100049F001E010E08C3111F410E000E011957C
:1022200001951109C8010F900F90DF91CF911F9177
:102230000F91FF90EF90DF90CF90BF90AF909F9065
:102240008F907F905F904F900895801691060CF4C8
:10225000840187E08A9DF0018B9DF00D1124ED5DD6
:10226000FB4FE280F380C114D10451F12701F7E064
:102270005F22872D0E948F08840D951D20913F04B9
:10228000273309F453C09801240D351D21303840FF
:1022900008F44CC020E038E0490184189508A401F6
:1022A000B6010E947D0A2601480C591C6801C81815
:1022B000D908872D0E948F08A601B2010E947D0ACD
:1022C000E00EF11E87E08A9DF0018B9DF00D112438
:1022D000ED5DFB4FF382E28220813181201B310BC7
:1022E000318320838681800F912F911D8A3F910534
:1022F00010F4232BF1F487E08A9DF0018B9DF00D03
:102300001124ED5DFB4F1682F982EA8222E030E073
:10231000AE014F5F5F4F68E270E0872D0E949D081D
:1023200060E470E0872D0E94250B7CCFA801B601E8
:10233000C5CF868377CFCF93DF93FC01218D328D7C
:102340002115310529F48FEF9FEFDF91CF9108958B
:10235000EC01808D4217530708F0A9010E94CB10B1
:102360001816190684F7298D3A8D281B390B3A8FD8
:10237000298FEBCF0F931F93CF93DF931F92CDB78E
:10238000DEB7FC01218D328D232B41F48FEF9FEFBF
:102390000F90DF91CF911F910F9108958C0141E033
:1023A00050E0BE016F5F7F4FFC01808D0E94CB101B
:1023B000181619065CF7F801818D928D0197928F9E
:1023C000818F898190E0E4CFCF93DF931F92CDB7C7
:1023D000DEB741E050E0BE016F5F7F4FFC018485B6
:1023E0000E94CB101816190634F4898190E00F90E2
:1023F000DF91CF9108958FEF9FEFF9CFFC01848596
:10240000843010F40C94CB1090E080E008950F938A
:102410001F93CF93DF9300D0CDB7DEB7FC012485A7
:102420002430E0F48C0180E591E00E94A40122E0D8
:1024300030E0AE014F5F5F4F60E170E0F8018485EE
:102440000E946A0C89819A819827892798270F9082
:102450000F90DF91CF911F910F91089590E080E050
:10246000F6CF0F931F93CF93DF9300D0CDB7DEB796
:10247000FC0124852430E0F48C0180E591E00E9489
:10248000A40122E030E0AE014F5F5F4F64E070E0F6
:10249000F80184850E946A0C89819A81982789278E
:1024A00098270F900F90DF91CF911F910F91089572
:1024B00090E080E0F6CFDC018DE991E08D939D9373
:1024C00084E0FB0101900D928A95E1F70895EF9267
:1024D000FF920F931F93CF93DF9300D000D0CDB71F
:1024E000DEB78C017B01FB0184858430A8F08DE987
:1024F00091E0F80191838083128213821482158205
:10250000C8010F900F900F900F90DF91CF911F9106
:102510000F91FF90EF90089580E591E00E94A40153
:1025200024E030E0AE014F5F5F4F6CE070E0F701F8
:1025300084850E946A0CBE016F5F7F4FC8010E94B4
:102540005B12DECF0F931F93CF93DF93CDB7DEB730
:1025500028970FB6F894DEBF0FBECDBF8C01D8010F
:1025600059964D915C915A974115510551F0ED9155
:10257000FC91048CF58DE02D70E060E0C8010995B8
:10258000EECFF801808D0E94A410892BB1F148E0B4
:1025900050E0BE016F5F7F4FD80158968C910E942A
:1025A000CB1018161906F4F4D801509684E0FE01F9
:1025B000319601900D928A95E1F78D8190E0982FE8
:1025C00088272E81820F911DF801958B848B8F8136
:1025D000282F30E0322F22278885820F932F911DDC
:1025E000928F818F28960FB6F894DEBF0FBECDBFB5
:1025F000DF91CF911F910F91089590E080E0F2CF8D
:102600004F925F926F927F928F929F92AF92BF9202
:10261000CF92DF92EF92FF920F931F93CF93DF93AE
:10262000CDB7DEB763970FB6F894DEBF0FBECDBF50
:102630007C016B013A01FB0120E090E080E06AE060
:102640003191332309F461C040ED430F4A3008F063
:102650004DC0689FA001699F500D1124CA01C09709
:10266000830F911D37FD9A958F3F910549F340F3F4
:10267000F701428153816481758180910F059091AA
:102680001005A0911105B0911205481759076A0766
:102690007B0709F40DC28701085F1F4F0E94E70204
:1026A0006F7077277C5FC8010E94B60E813009F0F9
:1026B00004C28DE991E09A838983F7018281938135
:1026C000A481B5818B839C83AD83BE8345E350E0B9
:1026D000BE016F5F7F4FC8010E943509892BA9F5A4
:1026E000D12CC12CC8010E944D0B17C03E3209F0FD
:1026F000BFCF233009F4BCCFD301A20FB11D129676
:102700008C932F5F90E080E09BCF233009F0B0CF17
:10271000F3018583CC24C394D12CC60163960FB6F4
:10272000F894DEBF0FBECDBFDF91CF911F910F9107
:10273000FF90EF90DF90CF90BF90AF909F908F90E1
:102740007F906F905F904F9008950E94E702F7018D
:102750007783668342E050E0B7016A5F7F4FC8012C
:102760000E94C60F81E090E09A83898342E050E0A6
:10277000BE016F5F7F4FC8010E94C60F80E091E0ED
:102780009A83898342E050E0BE016F5F7F4FC801AA
:102790000E94C60F1A82198242E050E0BE016F5FAC
:1027A0007F4FC8010E94C60F42E050E0BE016F5F3C
:1027B0007F4FC8010E94C60F42E050E0BE016F5F2C
:1027C0007F4FC8010E94C60F5601F6018081882301
:1027D00001F16501F60181912F01882311F08E32FC
:1027E000B1F446018A189B081814190474F48D86F4
:1027F00041E050E0BE01635F7F4FC8010E94C60FF9
:10280000A401B501C8010E94C60F5201DECF6201CA
:10281000E1CF1D8641E050E0BE01635F7F4FC801FC
:102820000E94C60FC12CDD24D394DA82C98242E013
:1028300050E0BE016F5F7F4FC8010E94C60FDA8271
:10284000C98242E050E0BE016F5F7F4FC8010E9425
:10285000C60FC8010E94C10B892B09F441CFF3E0D8
:10286000AF2EB12C230122E0420E511CD4C0F7013F
:102870004281538164817581808D918DA28DB38D4C
:10288000481759076A077B0709F008C1848D958DA1
:10289000C59709F003C181A192A15DEFC52EDD248A
:1028A000DA940C970CF4ADC04CE050E0BE016F5FC1
:1028B0007F4FC8010E949B118B819C81982789279B
:1028C00098279A8B898BF7014681578129813A8114
:1028D0004217530709F0E7C097FFE5C08F70927069
:1028E0003BEFC32EDD24DA94892B09F08AC06F8078
:1028F00078847624672476242AEFC22EDD24DA94A5
:102900006114710409F47DC0D12CC12C8D819E818C
:10291000982789279827C816D906F8F441E050E08F
:10292000BE01635F7F4FC8010E949B114D85442308
:1029300031F050E070E060E0C8010E949B118D858D
:102940008111ECCF44E050E070E060E0C8010E94EB
:102950009B11FFEFCF1ADF0AD9CF912C812C41E0D8
:1029600050E0BE016D5E7F4FC8010E949B114B89F4
:10297000842F807C09F06CC0442331F050E070E07B
:1029800060E0C8010E949B118B898111E8CF42E071
:1029900050E0BE01615F7F4FC8010E949B1142E081
:1029A00050E0BE01635F7F4FC8010E949B1144E06D
:1029B00050E070E060E0C8010E949B1142E050E0EE
:1029C000BE016F5E7F4FC8010E949B118F85988961
:1029D00049895A898115914009F043C0CD84DE842C
:1029E000DC24CD24DC2481E0C816D104D1F54115C6
:1029F000544009F04AC044E050E0B201C8010E94CE
:102A00009B1121E0A21AB10809F46CCEFFEFCF169A
:102A1000DF0609F067CE0E94E7023B014C01C801C6
:102A20000E94A212181619060CF421CF0E94E70288
:102A300066197709880999096938734181059105F3
:102A400048F562E370E080E090E00E94B502E7CFD5
:102A500041E050E070E060E0C8010E949B111B8AD9
:102A600093CF54274527542770E060E0C8010E94A7
:102A70009B11FFEF8F1A9F0A6814790409F06FCF3A
:102A800096EFC92EDD24DA94BCCFE7EFCE2EDD24FD
:102A9000DA94B7CFCC24CA94DC2CB3CF6EEFC62E19
:102AA000DD24DA94AECF4CEFC42EDD24DA94A9CF26
:102AB0008EEFC82EDD24DA9430CED12CC12C2DCE51
:102AC000CF92DF92EF92FF920F931F93CF93DF93FA
:102AD000CDB7DEB7AF970FB6F894DEBF0FBECDBF50
:102AE0007C016A010DE911E01A8309831C861B86AB
:102AF00088EE93E0A0E0B0E08D879E87AF87B88B2B
:102B000083E291E09A878987188F0F8B198E1A8E2E
:102B10001B8E1C8E84E089A31BA70AA71CA61DA6DA
:102B20001EA61FA68091030590910405A09105059E
:102B3000B09106058EA39FA3A8A7B9A78B839C83FA
:102B4000AD83BE8318861F82AE01465D5F4FCE0106
:102B500001960E94001381309105B1F4D701ED91E7
:102B6000FC910488F589E02D1DA30CA38CA59DA5DF
:102B7000AEA5BFA58EA39FA3A8A7B9A7A601BE0116
:102B80006C5D7F4FC7010995AF960FB6F894DEBF15
:102B90000FBECDBFDF91CF911F910F91FF90EF90AE
:102BA000DF90CF900895CF92DF92EF92FF920F9334
:102BB0001F93CF93DF93CDB7DEB7AF970FB6F894DF
:102BC000DEBF0FBECDBF8C016B017A018DE991E0B4
:102BD0009A8389831B821C821D821E821C861B860F
:102BE00048EE53E060E070E04D875E876F87788B3A
:102BF00023E231E03A872987988F8F8B198E1A8EBE
:102C00001B8E1C8E24E029A39BA78AA71CA61DA6A9
:102C10001EA61FA6D8011C968C91843060F40E94D9
:102C20005A0B882321F0F80184850E94350B84E03B
:102C3000D8011C968C938091030590910405A09176
:102C40000505B09106058EA39FA3A8A7B9A78B83FE
:102C50009C83AD83BE8318861F82AE01465D5F4FA5
:102C6000B601CE0101960E9400130097C1F0D80171
:102C7000ED91FC910684F785E02D8DE991E09DA30F
:102C80008CA38CA59DA5AEA5BFA58EA39FA3A8A729
:102C9000B9A7A701BE016C5D7F4FC8010995AF962A
:102CA0000FB6F894DEBF0FBECDBFDF91CF911F915D
:102CB0000F91FF90EF90DF90CF900895FB0101906E
:102CC0000020E9F73197AF01461B570BDC01ED916E
:102CD000FC910280F381E02D09948F929F92AF9234
:102CE000BF92EF92FF920F931F93CF93DF93CDB7D5
:102CF000DEB7A1970FB6F894DEBF0FBECDBF7C0143
:102D0000FA01CB0119A2223008F42AE08E010F5DEE
:102D10001F4F822E912CB12CA12CBF01A501940133
:102D20000E94172EF901CA016A300CF5605DD801C6
:102D30006E938D01232B242B252B79F790E080E0D7
:102D4000109721F0BD01C7010E945E16A1960FB633
:102D5000F894DEBF0FBECDBFDF91CF911F910F91D1
:102D6000FF90EF90BF90AF909F908F900895695C17
:102D7000DECF8F929F92AF92BF92CF92DF92EF926F
:102D8000FF920F931F93CF93DF937C01EB016C01B4
:102D900082E0C80ED11C4701E5E08E0E911C10E0C8
:102DA00000E0F60141916F0150E070E060E02AE040
:102DB000CE010E946D165C01E881F9810190F081DD
:102DC000E02D6EE2CE0109958A0D9B1D080F191F9B
:102DD000C814D90431F7F701458150E070E060E094
:102DE0002AE0CE010E946D16800F911FDF91CF91D6
:102DF0001F910F91FF90EF90DF90CF90BF90AF9019
:102E00009F908F900895CF93DF93D0E0C0E000971C
:102E100031F0BC0180E494E00E945E16EC016BEBA3
:102E200071E080E494E00E945E168C0F9D1FDF919C
:102E3000CF910895CF92DF92EF92FF920F931F935D
:102E4000CF93DF93CDB7DEB728970FB6F894DEBFE8
:102E50000FBECDBF0091FB031091FC03C8010E947F
:102E60000605811115C1D80114968D919C91DC0144
:102E7000ED91FC910688F789E02D0995882309F4E6
:102E800052C081E090E0F8019787868787E0E8E10B
:102E9000F1E0DE01119601900D928A95E1F7FE01B5
:102EA000319685E090E02191D80116964D915C9184
:102EB000DA01A80FB91F2C9301968C30910599F770
:102EC000D8011696ED91FC91179782E884871696A3
:102ED000ED91FC9117971B968C911B978587169601
:102EE000ED91FC9117971A968C911A9786871896F0
:102EF000ED90FC90B7018EEB91E00E94C9284196BD
:102F0000F801E816F90608F043C084819581DC01D8
:102F1000ED91FC910488F589E02D09958DE092E012
:102F20000E94031703C1D80191966D917C919297ED
:102F300014968D919C91DC01ED91FC91D8019396B2
:102F40004D915C9194976115710569F00088F18944
:102F5000E02D0995019709F494CF8EEF9FEFF801CA
:102F600090A787A3DBCF0684F785E02D2DE931E01C
:102F70003A8329835D96CD90DD90ED90FC909097FB
:102F8000CB82DC82ED82FE82BE016F5F7F4FE1CF9C
:102F9000668177814FE050E08EEB91E00E948201E4
:102FA0007C01D8011896CD90DC90B60181ED91E0BE
:102FB0000E94C9288E0D9F1D0296F801C816D906D9
:102FC00008F4A3CF66817781A70181ED91E00E948B
:102FD00082019C0125503109D80116964D915C91D2
:102FE00060E1C8010E943B050E94E702F801608B86
:102FF000718B828B938B648B758B868B978BF8018F
:1030000084819581DC01ED91FC910084F185E02DB6
:103010000995892BF9F40E94E702F801C488D58844
:10302000E688F7889B01AC012C193D094E095F0920
:1030300069017A0124853585A8EEB3E00E94392E16
:10304000C616D706E806F906D0F28CEF9FEF90A7D8
:1030500087A35BCFBE01685F7F4FC8010E94240633
:10306000643071058105910509F074C0D801169688
:10307000ED91FC9117978381811167C00E94E7024F
:10308000F801648B758B868B978B108E10A617A218
:1030900086EE91E00E9403170091FB031091FC0360
:1030A000D8011896ED90FC90B70181EF91E00E9455
:1030B000C9280996E816F906C8F1C8010E94060554
:1030C0008823A1F1F80186859785019609F444C00B
:1030D00097878687D8011696ED91FC9117971F96D2
:1030E0008C911F9785831696ED91FC9117971E96EC
:1030F0008C911E97868316966D917C9147E050E0E7
:1031000081EF91E00E948201D8011696ED91FC9129
:103110001797E80FF91F10829C0124503109169669
:103120004D915C9162E8C8010E943B0528960FB65C
:10313000F894DEBF0FBECDBFDF91CF911F910F91ED
:10314000FF90EF90DF90CF90089590E098969C9339
:103150008E939797F801D9CE81E090E09787868784
:10316000B9CF3F924F925F926F927F928F929F92D0
:10317000AF92BF92CF92DF92EF92FF920F931F9385
:10318000CF93DF93CDB7DEB7EA970FB6F894DEBFE3
:103190000FBECDBF7C012A013B0169010E94E702FD
:1031A0004B015C0187010D5B1F4FC8010E94A212F9
:1031B000181619069CF00E94E702681979098A0915
:1031C0009B09461657066806790608F466C162E34D
:1031D00070E080E090E00E94B502E7CF42E250E06C
:1031E000BE016F5F7F4FC8010E949B1189818230B1
:1031F000D1F0312C832DEA960FB6F894DEBF0FBEC6
:10320000CDBFDF91CF911F910F91FF90EF90DF9095
:10321000CF90BF90AF909F908F907F906F905F9076
:103220004F903F900895F8018489958983349105E2
:1032300001F76D817E818F8198850E9414304B014A
:103240005C01F60180829182A282B38246E050E066
:10325000B701685F7F4FCE014D960E944631892BA2
:1032600041F6F70180819181A281B3818816990688
:10327000AA06BB0608F4BDCF84819581A681B781DB
:1032800088159905AA05BB0508F4B3CF89899A89E1
:10329000AB89BC8986879787A08BB18B4EEC50E0B9
:1032A00070E060E0C8010E949B11312CC70182963A
:1032B00098AB8FA7F701B696FAABE9AB08969CAB33
:1032C0008BAB67019AE1C90ED11CBD96FEABEDAB8D
:1032D000C701429698AF8FABFD97FAAFE9AF4701B0
:1032E000FEE18F0E911CF801818D928D1816190642
:1032F0000CF080CFC8010E94BA118333910509F404
:10330000B2C014F58130910509F464C044F4892BEE
:1033100051F3C8010E94BA11AC01552775C0833022
:10332000910509F462C00697A1F7C8010E94BA117D
:10333000B82E44E050E0B401C8010E949B11EB2D6F
:10334000E450FF0BAF0160C08A33910509F45FC000
:1033500084F585339105B1F1C697D9F6C8010E946D
:10336000BA115C01B601CE0189960E945B128BA551
:103370009CA5ADA5BEA5892B8A2B8B2BB1F0EDA901
:10338000FEA94080518062807380B601CE01839691
:103390000E945B128DA19EA1AFA1B8A5A501481600
:1033A00059066A067B0609F0B8CF44E050E0B60142
:1033B00018C08B33910509F440C08F3F910509F483
:1033C00092CFA7CFC8010E94BA11C8010E94BA11BA
:1033D000382E89CFC8010E94BA1144E050E06FA98D
:1033E00078ADC8010E949B117ECFC8010E94BA111E
:1033F000B82E44E050E069AD7AADC8010E949B113F
:103400008B2D8450990BAC0170E060E0EACFC801CD
:103410000E94BA1144E050E069A97AA9C8010E944B
:103420009B11F70166A177A180A591A50E94143098
:1034300066A377A380A791A756CFC8010E94BA11AF
:1034400044E050E06BA97CA9C8010E949B11F701E0
:1034500062A573A584A595A50E94143062A773A7E1
:1034600084A795A740CFC8010E94BA1144E050E05C
:103470006FA578A9C8010E949B11F70162A173A1F1
:1034800084A195A10E94143062A373A384A395A381
:1034900066A777A780AB91AB26CF33243A94AACE08
:1034A0007F928F929F92AF92BF92CF92DF92EF92D4
:1034B000FF920F931F93CF93DF93CDB7DEB7A697FD
:1034C0000FB6F894DEBF0FBECDBF8C01762E942EC2
:1034D000852E20E2A22ECE0101967C01DC01EA2D90
:1034E0001D92EA95E9F76801F3E4CF0ED11C8DE94E
:1034F00091E09AA389A38FEF8BA38CA38DA38EA3B6
:1035000043E450E0BE016F5D7F4FC6010E94350964
:10351000019609F4BFC081E089838A8386E0B82ED2
:10352000BB821C82D80114966D917D918D919C91E6
:1035300017970E9414306D837E838F8398878986C6
:103540009A8680E890E09C878B874CE150E0B70139
:10355000C6010E94C60FFE0137968AE1DF011D9267
:103560008A95E9F74801B8E08B0E911CF401D70168
:1035700001900D92BA94E1F740E150E0B701C60125
:103580000E94C60FF7011192AA94E9F796E0A92EBE
:10359000B12C40E250E0B701C6010E94C60FF1E035
:1035A000AF1AB108B1F783E6898392E89A8393E56D
:1035B0009B838C8385E38D8381E08E837F829DE373
:1035C000988797E099878A8786E0F401DE011B9649
:1035D00001900D928A95E1F78CE0898B8A8B6AE1E4
:1035E00072E0CE0143960E948031D8011B966C9107
:1035F000CE0149960E94A701F8016485CE014B9641
:103600000E94A701D8011D966C91CE014D960E9493
:10361000A7014EE150E0B701C6010E94C60FB3E01A
:103620007B121EC082E3898384E08A83F801968539
:103630009B8397859C8390899D8391899E8396E344
:103640009F838887828D8987838D8A87848D8B87E6
:10365000858D8C874CE050E0B701C6010E94C60FF3
:1036600087E3898386E08A8391E09B8393E09C8350
:103670008D838FE08E838AE38F838BE388878FEF40
:10368000898749E050E0B701C6010E94C60FC60114
:103690000E94C10BA6960FB6F894DEBF0FBECDBF39
:1036A000DF91CF911F910F91FF90EF90DF90CF901E
:1036B000BF90AF909F908F907F9008952F923F92F0
:1036C0004F925F926F927F928F929F92AF92BF9232
:1036D000CF92DF92EF92FF920F931F93CF93DF93DE
:1036E00000D000D000D0CDB7DEB78C010E94632897
:1036F0002FEC37E040E050E00E94AE2DDC01CB0122
:103700000196A11DB11DF80184839583A683B7831B
:1037100080839183A283B3835801F3E4AF0EB11C7D
:10372000C5010E944D0B64E470E0C5010E94B60E15
:10373000882309F445C10E94E7022B013C0148019E
:1037400082E4880E911C48EEC42E43E0D42EE12C76
:10375000F12C52E0252E1E821D82D4018C918330E3
:10376000B1F1811166C0F80184819581A681B7818C
:103770000196A11DB11D84839583A683B7830E9402
:10378000E7026419750986099709A70196010E9445
:10379000172EA90161E0C8010E94501A81E0D401EE
:1037A0008C938D819E810197C1F20E94E70264197A
:1037B000750986099709D801D6962D913D914D91AD
:1037C0005C91D997261737074807590720F6C50196
:1037D0000E944D0BF80184819581A681B7810196E5
:1037E000A11DB11D84839583A683B7830E94E70240
:1037F000F801FE9660837183828393838D819E811D
:1038000026960FB6F894DEBF0FBECDBFDF91CF91E5
:103810001F910F91FF90EF90DF90CF90BF90AF90EE
:103820009F908F907F906F905F904F903F902F90E0
:1038300008958430F1F4F80184819581A681B781DF
:103840000196A11DB11D84839583A683B7830E9431
:10385000E7026419750986099709A70196010E9474
:10386000172EA90163E0C8010E94501AD4012C92BE
:1038700098CF813051F5F80142AD53AD64AD75ADCF
:103880009E012F5F3F4FC8010E94B118382EF2E011
:103890008F1390C089819A81AB81BC81F8018483A8
:1038A0009583A683B7830E94E70264197509860988
:1038B0009709A70196010E94172EA90163E0C8018C
:1038C0000E94501AD4013C926CCF823009F069CF2B
:1038D000F80142AD53AD64AD75AD9E012F5F3F4F12
:1038E000C8010E94B118382EF5E08F135DC0E3E0E7
:1038F000D401EC93F80182A193A1A4A1B5A1892BD5
:103900008A2B8B2B41F484E893E0A0E0B0E082A303
:1039100093A3A4A3B5A3F80186A197A1A0A5B1A5DF
:10392000892B8A2B8B2B61F482A193A1A4A1B5A131
:10393000B695A7959795879586A397A3A0A7B1A7B6
:10394000F80182A593A5A4A5B5A5892B8A2B8B2B5D
:10395000A9F482A193A1A4A1B5A1AC01BD0123E06A
:1039600076956795579547952A95D1F7841B950BC2
:10397000A60BB70B82A793A7A4A7B5A7F80186A1AA
:1039800097A1A0A5B1A586A797A7A0ABB1AB82A52B
:1039900093A5A4A5B5A582AB93ABA4ABB5AB81E0D1
:1039A00090E09E838D83FDCE96E0891303C0D40101
:1039B0001C92F7CEBFEF3B12F4CEF4011082F1CE91
:1039C0001E821D821BCFBF92CF92DF92EF92FF9299
:1039D0000F931F93CF93DF93CDB7DEB72C970FB61E
:1039E000F894DEBF0FBECDBF6C017A018091B302A7
:1039F0009091B402892B99F1B090B0028B2D90E098
:103A00004817590720F07C0121E0E21AF1080091E3
:103A1000B1021091B202A701C8010E945331F8010E
:103A2000EE0DFF1D10826FE270E0C6010E9496311C
:103A3000009729F1BC016F5F7F4F4BE050E0CE0152
:103A400001960E9487311C8664E372E0C8010E94DF
:103A5000A1310097B1F4CE0101960E945B0A2C9629
:103A60000FB6F894DEBF0FBECDBFDF91CF911F918F
:103A70000F91FF90EF90DF90CF90BF900895198243
:103A8000E2CF7C012AE0E20EF11C62E270E0C701A5
:103A90000E947531892BF9F26FE372E0C8010E9430
:103AA000A1316C01892B19F089E0C80ED11C48E0C6
:103AB00050E066ED71E0C7010E94BB28892BB9F583
:103AC000C114D10481F169E472E0C6010E94A13100
:103AD000892B49F181E08093F703FF24F3946F2D44
:103AE00084E00E941F028AE292E0FF2011F081E24E
:103AF00092E09F938F9384E891E09F938F931F921E
:103B0000BF921F930F930E94D4286091B1027091CD
:103B1000B202CE0101960E940B0A0FB6F894DEBFE6
:103B20000FBECDBF9CCF1092F703F12CD8CF49E048
:103B300050E06CEC71E0C7010E94BB28892B09F0B2
:103B40008ACF0E94E70228EE33E040E050E00E9476
:103B5000172E5F934F933F932F938091F7031F92FC
:103B60008F9383EA91E09F938F931F92BF921F934D
:103B70000F930E94D428C9CF0C94BD301F920F928E
:103B80000FB60F9211242F933F938F939F93AF9370
:103B9000BF9380911B0490911C04A0911D04B091CF
:103BA0001E0430911A0423E0230F2D3758F5019697
:103BB000A11DB11D20931A0480931B0490931C0433
:103BC000A0931D04B0931E0480911F0490912004C3
:103BD000A0912104B09122040196A11DB11D8093F2
:103BE0001F0490932004A0932104B0932204BF915A
:103BF000AF919F918F913F912F910F900FBE0F909A
:103C00001F90189526E8230F0296A11DB11DD2CF53
:103C10001F920F920FB60F9211242F933F934F9341
:103C20005F936F937F938F939F93AF93BF93EF9324
:103C3000FF9380E494E00E947704FF91EF91BF919D
:103C4000AF919F918F917F916F915F914F913F9134
:103C50002F910F900FBE0F901F9018951F920F92EB
:103C60000FB60F9211242F938F939F93EF93FF938F
:103C7000E0915004F09151048081E0915604F0915C
:103C8000570482FD1BC09081809159048F5F8F7310
:103C900020915A04821741F0E0915904F0E0E05C71
:103CA000FB4F958F80935904FF91EF919F918F91D6
:103CB0002F910F900FBE0F901F9018958081F4CF19
:103CC0000F931F93CF93DF93E0E4F4E0138212820B
:103CD00048EE53E060E070E0448355836683778369
:103CE0008DE491E09183808385EC90E095878487D3
:103CF00084EC90E09787868780EC90E0918B808BB6
:103D000081EC90E0938B828B82EC90E0958B848B9E
:103D100086EC90E0978B868B118E128E138E148E0C
:103D2000EDEDF4E08DE991E09183808312821382BE
:103D300014821582E3EEF4E0918380831282138271
:103D400014821582E9EEF4E091838083128213825B
:103D500014821582EFEEF4E0918380831282138245
:103D600014821582E5EFF4E091838083128213823E
:103D700014821582EBEFF4E0918380831282138228
:103D800014821582E7E0F5E091838083128213822A
:103D900014821582E1E0F5E0918380831282138220
:103DA00014821582EDE0F5E0918380831282138204
:103DB00014821582E3E1F5E09183808312821382FD
:103DC00014821582E9E1F5E09183808312821382E7
:103DD00014821582EFE1F5E09183808312821382D1
:103DE00014821582E5E2F5E09183808312821382CA
:103DF00014821582ABE2B5E022E015962C9315975C
:103E000026E116962C931697E9E9F2E0E4911796CD
:103E1000EC931797E5E8F2E0E4911896EC93189785
:103E200000E81EE320E030E01D960D931D932D93D6
:103E30003C935097E6E7F5E09183808312821382EA
:103E400014821582E7E6F5E01382128244835583DB
:103E5000668377832BE631E03183208324E0248757
:103E600028EE33E036872587CEE3D5E01B821A8221
:103E70002FE531E0398328839C8F8B8F1D8E1E8E1A
:103E80001F8E18A28FEF9FEF98A78FA3FD83EC835F
:103E90001EA21DA280E091E00E9421309F838E83AC
:103EA00080E091E0998788878FE090E09B878A8700
:103EB0009D878C87DF91CF911F910F910895CF93AC
:103EC000DF93CDB7DEB7A1970FB6F894DEBF0FBE74
:103ED000CDBF789484B5826084BD84B5816084BD93
:103EE00085B5826085BD85B5816085BD80916E0098
:103EF000816080936E0010928100809181008260C9
:103F00008093810080918100816080938100809105
:103F100080008160809380008091B10084608093F4
:103F2000B1008091B00081608093B00080917A00F0
:103F3000846080937A0080917A00826080937A0016
:103F400080917A00816080937A0080917A00806805
:103F500080937A001092C100E0915004F0915104D6
:103F600082E08083E0914C04F0914D041082E09156
:103F70004E04F0914F048FEC808310925804E0912E
:103F80005404F091550486E08083E0915204F0914E
:103F90005304808180618083E0915204F091530446
:103FA000808188608083E0915204F0915304808185
:103FB00080688083E0915204F091530480818F7D6A
:103FC00080836EE472E080E494E00E945E1662E01A
:103FD00083E00E944D0262E0809130050E944D0214
:103FE0000E94E702605D7740810991096093340582
:103FF00070933505809336059093370587E380935A
:104000003D0561E085E00E944D0261E086E00E948E
:104010004D0261E087E00E944D0261E084E00E9471
:104020004D0260E085E00E941F0260E086E00E9491
:104030001F0260E087E00E941F0260E084E00E94AF
:104040001F0241E253E05093F9034093F80328EC38
:104050002093FA038EE395E09093B4028093B30229
:104060005093B2024093B1022093B00223EE3CE1A0
:1040700030935805209357059093FC038093FB03DE
:104080008091190381112AC010920103109200033C
:1040900088EE93E0A0E0B0E08093020390930303E6
:1040A000A0930403B093050383E291E09093FF0291
:1040B0008093FE028DE991E090930D0380930C03B1
:1040C00010920E0310920F0310921003109211031E
:1040D00084E08093160381E0809319038BEB92E0D8
:1040E0009093EA038093E9038091BA028111ADC0F5
:1040F00060E372E080E090E00E94B502DFB6F894E1
:104100000DE812E0B1EAEB2EB2E0FB2E8091B8028E
:10411000811125C0F8018491F7019491E82FF0E016
:10412000EE0FFF1FEF5AFD4FA591B4918C9198238C
:1041300021F461E08AE00E941F0261E08AE00E94AF
:104140004D028CB580618CBD8CB580648CBD61E006
:104150008DE00E944D0261E08BE00E944D02809153
:10416000B8028F5F8093B802DFBEF8010491E02FA0
:10417000F0E0EE0FFF1FE55AFD4F8591949190936B
:10418000B7028093B602F701E490E092B50261E0D5
:104190008AE00E944D020E94B00780E591E00E94F3
:1041A000A40184E380933F0480E80E947C080E947D
:1041B000050C882309F4F5C088E00E947C080E9461
:1041C000F20B883009F0EDC080E10E947C080E946B
:1041D000F20B803109F0E5C080E00E947C080E946B
:1041E000F20B182F8111DDC041E050E0BE016F5F7E
:1041F0007F4F8FE190E00E947D0A8981833009F032
:10420000D0C080E48093B90242E06EE170E0812F7B
:104210000E94D80842E06FE170E0812F0E94D80828
:104220001F5F143089F740E06EE170E0812F0E943B
:10423000D80840E06FE170E0812F0E94D8081F5F2E
:10424000183089F781E08093BA0280E591E00E94FE
:10425000A40146E050E060E071E089E090E00E9457
:10426000CC078DE991E09A8389831B821C821D8291
:104270001E82CE0103960E942D098091E903909140
:10428000EA03DC0192961D921D921D921C92959755
:10429000FC0116A217A210A611A69A961D921D92B5
:1042A0001D921C929D9740E65AEE60E070E046AB8E
:1042B00057AB60AF71AF40EA5FE060E070E0DA9664
:1042C0004D935D936D937C93DD973E9624E1DF01E2
:1042D0001D922A95E9F726E0E0E0F1E0DC0118966E
:1042E00001900D922A95E1F7FC01EE5BFF4F1082E1
:1042F0000E945E1B019709F0BDC080E591E00E941D
:10430000A4010091E9031091EA03B801625F7F4FB5
:10431000CE0101960E945B12CE0103960E942D09E8
:10432000B8016A5E7F4FCE0101960E945B1244E0A5
:1043300050E0BE016D5F7F4F81E090E00E94CC07AE
:10434000B8016E5E7F4FCE0101960E945B1244E081
:1043500050E0BE016D5F7F4F85E090E00E94CC078A
:10436000B801625E7F4FCE0101960E945B128B8185
:104370009C81AD81BE818093030590930405A09339
:104380000505B09306050E9490027F738091060197
:1043900090910701682779277093070160930601C0
:1043A00069C087E380933F0480E80E947C080E94F4
:1043B000050C882329F188E00E947C080E94F20BFA
:1043C0008830F1F480E10E947C080E94F20B182FE3
:1043D0008031B1F480E00E947C080E94F20B8111D0
:1043E0000FC041E050E0BE016F5F7F4F89E390E076
:1043F0000E947D0A8981843019F41093B90222CF7A
:1044000083E380933F0480E80E947C080E94050CAF
:10441000882371F180E10E947C080E94F20B8031B8
:1044200039F582E10E947C080E94F20B823101F58D
:1044300080E00E947C080E94F20B811119C084E088
:104440008093B90215E51A8F41E050E0BE01665E27
:104450007F4F8BE190E00E94CC07198F41E050E044
:10446000BE01675E7F4F8AE190E00E94CC07EACEF2
:1044700010923F0460ED77E080E090E00E94B5028A
:10448000E091FB03F091FC0382E692E092A381A30A
:104490008BE597E094A383A30E941A1760E087E05E
:1044A0000E941F02FE0131961F019E012F5E3F4FA9
:1044B0003C8F2B8FAE01475F5F4F5E8F4D8F00911A
:1044C000E9031091EA030115110509F4CCC00E941B
:1044D000E7024B015C0178015EE3E50EF11CF70198
:1044E00080819181A281B381A5019401281B390BA0
:1044F0004A0B5B0BCA01B901683E33E073078105C3
:104500009105A0F128EE33E040E050E00E94172E24
:10451000861A970AA80AB90AD7018D929D92AD9280
:10452000BC921397F80186A597A5A0A9B1A9690126
:104530007A01CC0CDD1CEE1CFF1C8C159D05AE0514
:10454000BF0508F01FC116A617A610AA11AAF801E8
:1045500082A993A9A4A9B5A98C159D05AE05BF058F
:1045600008F019C112AA13AA14AA15AAF80186A55F
:1045700097A5A0A9B1A9892B8A2B8B2B09F014C16F
:10458000EE5BFF4F8081833009F00EC184E08083B1
:10459000C8010E945E1B0196D801D2964D915D9193
:1045A0006D917C91D597452B462B472BA1F4F801B3
:1045B000EE5BFF4F2081233011F021110CC01082DF
:1045C000F8013E9684E1DF011D928A95E9F7C80162
:1045D0000E945E1B03968230910519F0049709F042
:1045E00042C080E591E00E94A4010091E90310918E
:1045F000EA03B801625F7F4FC1010E945B12CE01E6
:1046000003960E942D09B8016A5E7F4FC1010E9486
:104610005B1244E050E0BE016D5F7F4F81E090E0AF
:104620000E94CC07B8016E5E7F4FC1010E945B12F1
:1046300044E050E0BE016D5F7F4F85E090E00E9456
:10464000CC07B801625E7F4FC1010E945B128B8173
:104650009C81AD81BE818093030590930405A09356
:104660000505B09306058091FB039091FC030E9421
:104670000605882309F4A3C10091FB031091FC03F4
:10468000C8010E940605882309F445C00E94E7027C
:104690006B017C01F80122853385A8EEB3E00E940E
:1046A000392E84889588A688B788A701960128198D
:1046B00039094A095B0949015A01681579058A05D2
:1046C0009B0590F080889188A288B388A701960105
:1046D000281939094A095B0949015A016815790500
:1046E0008A059B0508F089C0D80158968C91589787
:1046F000882309F45CC0ECEFFFEF9896FC93EE93EF
:10470000979714968D919C91DC01ED91FC91048812
:10471000F589E02D09950E94E7022B013C0180916B
:10472000160490911704A0911804B0911904730114
:104730006201C81AD90AEA0AFB0AD701C601803DFC
:104740009740A105B10508F4B4C2409216045092F6
:10475000170460921804709219040E94F3028823CF
:1047600051F0809131058C3009F4A6C108F04AC19E
:104770008B3009F461C1C12CD12C40ECE42E4FE701
:10478000F42E84C1821B930BA40BB50B86A797A7AD
:10479000A0ABB1ABDCCE821B930BA40BB50B82ABF1
:1047A00093ABA4ABB5ABE2CE90E080E0F5CE16962D
:1047B000ED91FC91179780EC80831696ED91FC911A
:1047C0001797118214968D919C91159716966D915D
:1047D0007C91DC01ED91FC910280F381E02D42E0BF
:1047E00050E00995F801C08AD18AE28AF38AC48A26
:1047F000D58AE68AF78A81E0808FF80184819581E5
:10480000DC01ED91FC910084F185E02D0995892B67
:1048100009F481CFB101C8010E9424062B01672B46
:1048200009F4C9C0F801C48AD58AE68AF78A0680E5
:10483000F781E02D8081807F803309F09BC0D80113
:1048400059968D919C91892B09F465CF498150E04F
:10485000CA0102968E0F9F1FDF01A40FB51F11968C
:104860008C90912C982C8824DC016C91860E911CE4
:104870004D5F5F4FBF01640F751FA4010E945C3143
:10488000E981D80116968D919C911797880D991DF5
:10489000E80FF92FF11D128216960D90BC91A02DF4
:1048A000298130E0C90102968A0F9B1F4C91467006
:1048B00049A3F801A18CB28C423009F049C0B4017F
:1048C000620F731FFD01E60FF71F438150E0542F65
:1048D0004427E4814E0F511D58A34F8F4BEF5FEFDC
:1048E000421B530B48195909440D551D6B5F7F4FEF
:1048F0006A0F7B1FF5010995D8011696ED91FC9181
:10490000179780E480831696ED91FC91B9A1B1834D
:10491000D8011696ED91FC91B8A1B283D8011696F4
:10492000ED91FC91BF8DB383F801848195816681FF
:104930007781DC01ED91FC910280F381E02D44E070
:1049400050E00995F801C08AD18AE28AF38AE3CE61
:104950004DEF5FEF421B530B48195909440D551D8C
:104960002D5F3F4F280D391DBD01620F731FF501EB
:104970000995D1CE803CC9F480ED8083D80116968C
:10498000ED91FC911797118214968D919C9115973A
:1049900016966D917C91DC01ED91FC910280F38182
:1049A000E02D42E050E00995B6CE803D09F0B3CE4F
:1049B000F801108EB0CEC8010E940605ACCE0E9450
:1049C000E7020091EB031091EC032091ED0330918D
:1049D000EE036B017C01C01AD10AE20AF30A9701C7
:1049E0008601083813412105310508F494CE6093FF
:1049F000EB037093EC038093ED039093EE030E941E
:104A00001A1789CE8551823008F0B5CE10912D0548
:104A1000612F70E0762F662766277F7780912E05BD
:104A2000682B90E080E00E94EB2E2DEC3CEC4CECEF
:104A30005DE30E947E2F5CC060912D0570E090E0E8
:104A400080E00E94EB2E6B017C0110912E0517FF78
:104A50000AC0AC019B0160E070E080E89FEB0E941F
:104A6000482E6B017C011F70612F70E090E080E0A8
:104A70000E94ED2E2DEC3CEC4CEC5DE30E947E2F71
:104A8000A70196010E94492E6B017C010E94F3024E
:104A9000882309F465C0809131058B3030F08D306A
:104AA00080F18551823008F4D0C1812C912C30ECFA
:104AB000A32E3FE7B32E43C010912D05612F70E068
:104AC00090E080E00E94EB2E6B017C0160912E054E
:104AD0006F7070E090E080E00E94ED2E2DEC3CECD9
:104AE0004CEC5DE30E947E2FA70196010E94492EA7
:104AF0006B017C0117FFCACFF7FAF094F7F8F09436
:104B0000C5CF60912C0570E090E080E00E94ED2E12
:104B10002DEC3CEC4CEC5DE30E947E2F4B015C01E4
:104B200060912B0570E090E080E00E94ED2E9B01EB
:104B3000AC01C501B4010E94492E4B015C01A701E3
:104B40009601C701B6010E94EB2F811109C0A50192
:104B50009401C501B4010E94EB2F882309F487C199
:104B600081E0809315048091F3039091F403A09168
:104B7000F503B091F6038093060490930704A09385
:104B80000804B09309048091EF039091F003A09181
:104B9000F103B091F20380930A0490930B04A09365
:104BA0000C04B0930D048FE00E947E02BC01990FAB
:104BB000880B990B0E94ED2E20E93EE34AEF5EE35D
:104BC0000E947E2F20E030E040E251E40E947E2FE0
:104BD0006B017C0120E030E0A9010E94792F20E0E8
:104BE00030E040E05FE387FDB7C1C701B6010E9436
:104BF000492E0E94B52E0E94ED2E2DEC3CEC4CEC83
:104C00005DE30E947E2F60930E0470930F048093E7
:104C100010049093110424E0F22E10E000E08EE0E6
:104C20000E947E02080F191F6AE070E080E090E0A9
:104C30000E94B502FA94F110F2CF169507951695D9
:104C400007951093130400931204E8E6F2E08491B0
:104C5000EAE9F2E00491E6E8F2E01491112309F4A4
:104C600080C181110E94F601E12FF0E0EE0FFF1FDD
:104C7000E758FD4FA591B4918C91082381E009F08C
:104C800080E08093140420E030E04AEF52E4609129
:104C90000E0470910F0480911004909111040E94F1
:104CA000792F87FF60C11092F70360E084E00E94D3
:104CB0001F028091FB039091FC030E94060588234C
:104CC00009F4A0C08091020490910304A09104040F
:104CD000B091050473016201C81AD90AEA0AFB0AF5
:104CE000D701C60188389341A105B10508F48AC0EF
:104CF00040920204509203046092040470920504EE
:104D0000F090F70360910604709107048091080405
:104D1000909109048E010F5E1F4F21E041E00E9437
:104D2000F92760910A0470910B0480910C04909112
:104D30000D040850110921E041E00E94F92760911B
:104D40000E0470910F048091100490911104810160
:104D500021E041E00E94F927809115041F928F9372
:104D60001F92FF92809114041F928F9380911304DD
:104D70008F93809112048F933F922F923E8D3F9399
:104D80004D8D4F935C8D5F938B8D8F938FED91E065
:104D90009F938F938091FA031F928F938091F903D1
:104DA0008F938091F8038F930E94D4280091F80389
:104DB0001091F903E090FB03F090FC030FB6F89418
:104DC000DEBF0FBECDBF90E080E00115110531F0D0
:104DD000F70160857185C8010E94C9289C01A8015E
:104DE00069E772E0C7010E94AA09882309F4C0C0DC
:104DF00081E992E00E9403178091F8039091F903F2
:104E00000E940317109115048091FB039091FC03FD
:104E10000E9406058111AFC061E087E00E941F0279
:104E200060E085E00E941F0260E086E00E941F02B1
:104E300080E090E0892B09F442CB0E946304882330
:104E400009F43DCB0E94000035CB60912B05709199
:104E50002C0576276727762790E080E00E94EB2ECE
:104E60002DEC3CEC4CEC5DE30E947E2F66CE109264
:104E7000150420E030E040E251E4C701B6010E9491
:104E80007E2F6B017C0120E030E0A9010E94792F88
:104E900020E030E040E05FE387FD54C0C701B60189
:104EA0000E94492E0E94B52E0E94ED2E2DEC3CEC66
:104EB0004CEC5DE30E947E2F6B017C01C0920604E6
:104EC000D0920704E0920804F092090420E030E058
:104ED00040E251E4C501B4010E947E2F4B015C0108
:104EE00020E030E0A9010E94792F20E030E040E08E
:104EF0005FE387FD2CC0C501B4010E94492E0E94CA
:104F0000B52E0E94ED2E2DEC3CEC4CEC5DE30E94A6
:104F10007E2F60930A0470930B0480930C0490938B
:104F20000D04C092F303D092F403E092F503F092E3
:104F3000F6036093EF037093F0038093F103909373
:104F4000F20331CEC701B6010E94482EABCFC50196
:104F5000B4010E94482ED3CFC701B6010E94482E4B
:104F600048CE81E08ECE81E08093F70361E09ECE53
:104F700080EA92E045CF60E087E00E941F0260E097
:104F8000112359F185E00E941F020E94E70200915F
:104F9000FE031091FF0320910004309101046B0186
:104FA0007C01C01AD10AE20AF30A97018601053F83
:104FB00011402105310508F43BCF6093FE03709347
:104FC000FF03809300049093010461E08091FD034E
:104FD000811160E06093FD0328CF86E00E941F02EC
:104FE00061E085E023CF80914405909145050C94C4
:104FF000BD30EF920F931F93CF93DF93E80134E01E
:1050000047FD34E1042E000C550B57FF03C05195AA
:1050100041955109E32E022F242FAE010E94DE2A72
:10502000CE01DF91CF911F910F91EF9008958F9254
:105030009F92AF92BF92CF92DF92EF92FF92CF9367
:10504000DF93EC01688179818A819B81611571050B
:105050008105910521F464E279ED8BE597E02DE17E
:1050600033EF41E050E00E94AE2D49015A019B010F
:10507000AC01A7EAB1E40E94CD2D6B017C01ACEE3E
:10508000B4EFA50194010E94DB2DC60ED71EE81EC9
:10509000F91EF7FE06C081E0C81AD108E10880E8D1
:1050A000F80AC882D982EA82FB82C701B6019F77DB
:1050B000DF91CF91FF90EF90DF90CF90BF90AF90B6
:1050C0009F908F9008958F929F92AF92BF92CF92B0
:1050D000DF92EF92FF926091080170910901809137
:1050E0000A0190910B01611571058105910521F46B
:1050F00064E279ED8BE597E02DE133EF41E050E09C
:105100000E94AE2D49015A019B01AC01A7EAB1E40E
:105110000E94CD2D6B017C01ACEEB4EFA501940192
:105120000E94DB2DC60ED71EE81EF91EF7FE06C034
:1051300081E0C81AD108E10880E8F80AC0920801A5
:10514000D0920901E0920A01F0920B01C701B60169
:105150009F77FF90EF90DF90CF90BF90AF909F90A0
:105160008F900895609308017093090180930A015C
:1051700090930B010895FB01DC014150504030F049
:105180008D910590801919F40020B9F7881B990BAF
:105190000895FC016150704001900110D8F780958E
:1051A00090958E0F9F1F0895AEE0B0E0EAEDF8E213
:1051B0000C94EE2D0D891E898F89988D2EE02C83FD
:1051C0001A83098397FF02C080E090E801979E83CD
:1051D0008D83AE01455E5F4F698D7A8DCE0101965C
:1051E0000E9404294D815E8157FD0AC02F813885B8
:1051F000421753070CF49A01020F131FF801108293
:105200002E96E4E00C940A2EABE0B0E0EAE0F9E27E
:105210000C94E02D7C013B018A01FC01178216826F
:10522000838181FFC8C1CE0101965C01F7019381A2
:10523000F30193FD859193FF81913F01882309F448
:1052400053C1853239F493FD859193FF81913F01DC
:10525000853229F4B70190E00E94202DE7CF912CF0
:10526000212C312CFFE1F31538F08B3211F190F441
:10527000803209F1833229F137FC3CC020ED280F40
:105280002A3050F536FE20C08AE0989E200D112469
:10529000922E06C08D3291F0803371F7689430F809
:1052A000F30193FD859193FF81913F018111DACF45
:1052B00021C0689431F8689432F8F2CF689433F8DA
:1052C000EFCF689434F8ECCFEAE02E9E200D112445
:1052D000222E689435F8E4CF8E3229F436FC04C1CE
:1052E000689436F8DDCF8C3619F4689437F8D8CF47
:1052F0008836B1F2982F9F7D95549330E0F0833635
:10530000A1F18337C1F1833509F063C02801F2E0D0
:105310004F0E511CF801C080D180692D70E036FC21
:1053200002C06FEF7FEFC6010E94152D4C016894FB
:1053300037F882010AC00C5F1F4FFFE3F98388240E
:105340008394912C6501E89437F833FE2DC0522CDC
:105350008114910471F5552009F468CFB70180E2FA
:1053600090E00E94202D5A94F6CFF8018081898325
:105370000E5F1F4FE4CF2801F2E04F0E511CF801E1
:10538000C080D180692D70E036FC02C06FEF7FEFE6
:10539000C6010E94C9284C018201D5CFB70180E225
:1053A00090E00E94202D2A942814190409F0B0F7E7
:1053B000CECFF60137FC859137FE81916F01B701A1
:1053C00090E00E94202D51105A94F1E08F1A91081C
:1053D000BFCF843619F0893609F077C0F80137FE5F
:1053E0006BC060817181828193810C5F1F4FF32DAF
:1053F000FF763F2E97FF09C0909580957095619537
:105400007F4F8F4F9F4F689437F82AE030E0A50117
:105410000E94502DC82ECA188C2C432C36FE0CC06E
:10542000E89440F8C91440F434FE05C032FC03C0CF
:10543000F32DFE7E4F2E892C44FE95C0FE01EC0D0F
:10544000F11D8081803309F087C0242D297E422EF2
:10545000842D8870582E43FC95C040FE8FC09C2C34
:10546000821418F42C0C922C981844FE91C0B701A9
:1054700080E390E00E94202D42FE09C088E790E082
:1054800041FE02C088E590E0B7010E94202DC914BA
:1054900008F48AC0CA94D12C9FEFC91AD90ACA0C41
:1054A000DB1CF60182916F01B70190E00E94202D74
:1054B000AC14BD04B1F74FCF60817181072E000C91
:1054C000880B990B0E5F1F4F92CFD32CE894D4F822
:1054D0002AE030E0853739F1232D297FD22E8F360F
:1054E00001F148F48835A9F0F701868197812B9660
:1054F000E2E10C94FC2D803749F08837A9F7D4FEFF
:1055000002C06894D2F820E130E00DC06894D4F86D
:10551000F6CF34FE03C0822F8660D82E20E132E021
:1055200002C028E030E0F801D7FE0FC06081718131
:10553000828193810C5F1F4FA5010E94502DC82EC0
:10554000CA183D2CE89437F867CF6081718190E0EC
:1055500080E00E5F1F4FF0CF42FC02C0839478CFF3
:105560008394839475CF842D867809F471CFF6CF18
:10557000B70180E290E00E94202D83948214C0F352
:10558000512C73CF522C5818821408F46ECFF8CFD8
:10559000842D867809F47BCF8BE241FE80E247FCC4
:1055A0008DE2B70190E071CFB70180E390E00E94F7
:1055B000202D9A946CCF8FEF9FEF99CFA9E0B0E0A8
:1055C000E4EEFAE20C94E62D6A01F22EB02E102FD2
:1055D000FBE3AF2EA01608F41BE31F5F012F27E0AB
:1055E000AE014F5F5F4F0E943D2CBC018981982F17
:1055F0009970913009F43FC09BE2E1FC04C09E2DFC
:105600009170E0FC3AC05E2D5071E82FE87083FF86
:1056100046C084E0911101C083E0EF2DE81B8F1597
:1056200008F0E0E0D6018E2F20E2552351F19923B6
:1056300029F0D6019C93C60101966C0196012D5F5D
:105640003F4FE2FE24C08EE4D6018C9391E4119684
:105650009C93119712968C93D9018E2F90E2811111
:105660001BC0E20FF32FF11D10828EEF9FEF2996E2
:10567000ECE00C94022E9DE2C6CF90E2C4CF2D93B5
:1056800081508111FCCFCE0ED11CE0E0D0CF8EE650
:10569000D6018C9391E6DBCF9D938150E0CF482FCC
:1056A000447082FF3DC084E0911101C083E08F15FA
:1056B00010F4EF2DE81BD6018E2F20E2552309F1BF
:1056C000992329F0D6019C93C60101966C0196019D
:1056D0002D5F3F4FE2FE1BC089E4D6018C938EE420
:1056E00011968C93119786E412968C93D9018E2F84
:1056F00090E2882309F4B5CF9D938150FACF2D9382
:1057000081508111FCCFCE0ED11CE0E0D9CF89E6CB
:10571000D6018C938EE611968C93119786E6E4CF92
:105720009B0177FF02C030E020E0A1E0B0E09111E2
:1057300002C0B0E0A0E0F9013196AE0FBF1F8B2C84
:10574000912CBB2009F461C05401EFEFAE1ABE0AE0
:10575000AA0DBB1DFA161B0619F014F04F2D4A1B9B
:10576000511188C0E3FC59C07601A42FB0E2A11109
:105770004FC0C40ED11C992309F45BC040E0D60190
:105780001196F60190836D01552309F448C0012F4D
:10579000060F9A81582F507184FF03C0913309F48A
:1057A000015010160CF047C0093008F008E0EEE296
:1057B000FE2E5B01A01AB108850191948194910895
:1057C0002F3F320729F4D601FC92F60131966F0182
:1057D0006217730794F1021713077CF5DB01A21B14
:1057E000B30BAA24A394B12CAC0EBD1EAA0DBB1DF5
:1057F00011968C9121503109D60111962815390541
:10580000F4F0F60180836D01DBCFB12CA12CA0CF89
:10581000F701B1937F01A150AACF9111B0CFD6016A
:10582000942F50E302C05D9391509111FCCFC40EB0
:10583000D11C40E0ACCF01E0BACF80E3DBCF6217F0
:10584000730731F4963388F4953311F4552369F0D6
:10585000F6018083FD01842F90E2811108C0A40F1E
:10586000B11D1C9290E080E002CF81E3F1CF9193D3
:105870008150F3CF911183CF8ACF283008F027E0F1
:105880003327DA01990F311D87FD9160009661057C
:10589000710539F432602E5F3D9330E32A95E1F7CC
:1058A00008959F3F30F080387105610509F03C5F35
:1058B0003C5F3D93913008F08068911DDF93CF935A
:1058C0001F930F93FF92EF92192F987F9695E92FD0
:1058D00096959695E90FFF27EE53FF4F99273327AB
:1058E000EE24FF24A701E70105900894079428F40B
:1058F000360FE71EF81E491F511D660F771F881FC0
:10590000991F0694A1F70590079428F4E70EF81E56
:10591000491F561FC11D770F881F991F661F0694C8
:10592000A1F70590079428F4F80E491F561FC71FCA
:10593000D11D880F991F661F771F0694A1F7059048
:10594000079420F4490F561FC71FD81F990F661FD1
:10595000771F881F0694A9F784911095177041F05E
:10596000D695C79557954795F794E7941A95C1F73B
:10597000E8E6F0E068941590159135916591959160
:1059800005907FE27395E118F10A430B560BC90BA2
:10599000D009C0F7E10CF11E431F561FC91FD01DCF
:1059A0007EF4703311F48A95E6CFE894015030F01C
:1059B000080F0AF40027021708F4202F2395022F5E
:1059C0007A3328F079E37D932A95E9F710C07D9327
:1059D0002A9589F6069497956795379517951794A4
:1059E000E118F10A430B560BC90BD00998F0239527
:1059F0007E9173957A3308F070E37C932013B8F7A7
:105A00007E9170617D9330F0839571E37D9370E3B7
:105A10002A95E1F71124EF90FF900F911F91CF91FC
:105A2000DF91992787FD90950895FC0105906150BD
:105A300070400110D8F7809590958E0F9F1F0895A4
:105A40000F931F93CF93DF93182F092FEB018B81B7
:105A500081FD09C01FEF0FEF812F902FDF91CF91B4
:105A60001F910F91089582FF14C02E813F818C8178
:105A70009D81281739073CF4E881F981CF0101960F
:105A80009983888310838E819F8101969F838E8363
:105A9000E3CFE885F985812F0995892BA1F3DACF2A
:105AA000FA01AA27283051F1203181F1E8946F934F
:105AB0006E7F6E5F7F4F8F4F9F4FAF4FB1E03ED0F5
:105AC000B4E03CD0670F781F891F9A1FA11D680F93
:105AD000791F8A1F911DA11D6A0F711D811D911DC6
