:020000040000FA
:100000000C9460010C9488010C9488010C94880174
:100010000C9488010C9488010C9488010C9488013C
:100020000C9488010C9488010C9488010C9488012C
:100030000C9488010C9488010C9488010C9488011C
:100040000C94EA1D0C9488010C945A1E0C94341ED6
:100050000C9488010C9488010C9488010C948801FC
:100060000C9488010C94880100407A10F35A00A087
:10007000724E18090010A5D4E80000E87648170071
:1000800000E40B54020000CA9A3B000000E1F505B1
:10009000000080969800000040420F000000A086FB
:1000A00001000000102700000000E803000000002D
:1000B0006400000000000A000000000001000000D1
:1000C00000002C76D888DC674F0823DFC1DFAE59EB
:1000D000E1B1B796E5E3E453C63AE651997696E87E
:1000E000E6C28426EB898C9B62ED407C6FFCEFBC02
:1000F0009C9F40F2BAA56FA5F490055A2AF75C932D
:100100006B6CF9676DC11BFCE0E40D47FEF520E662
:10011000B500D0ED902E0300943577050080841E45
:10012000080000204E0A000000C80C333333330FA0
:10013000986E12831141EF8D2114893BE65516CF3D
:10014000FEE6DB18D1844B381BF77C1D901DA4BB49
:10015000E424203284725E228100C9F124ECA1E5FE
:100160003D2725732573007B227375636365737365
:10017000223A66616C73652C22636F6465223A349F
:1001800030347D007B2273756363657373223A7428
:100190007275652C22726573756C74223A22257310
:1001A000227D007B2273756363657373223A7472D8
:1001B00075652C2272656C6179223A25752C227541
:1001C0007074696D65223A256C757D00676574539E
:1001D00074617475730073657452656C6179007B2A
:1001E0002274656D7065726174757265223A25734B
:1001F0002C202268756D6964697479223A25732C04
:1002000020226C647256616C7565223A25752C2229
:1002100069734461726B223A25752C20226D6F74CC
:10022000696F6E4465746563746564223A25752C44
:10023000202272656C61795374617465223A257568
:100240002C22646F6F724F70656E223A25752C20D8
:100250002273656E736F724572726F72223A2575E2
:100260007D0000000000240027002A00000000009C
:10027000250028002B0000000008000201000003F8
:100280000407000000000000000000000000230040
:1002900026002900040404040404040402020202E7
:1002A0000202030303030303010204081020408039
:1002B0000102040810200102040810208C1E2B28C3
:1002C00011241FBECFEFD8E0DEBFCDBF12E0A0E00B
:1002D000B1E0E0E0F4E602C005900D92AE3BB1075C
:1002E000D9F725E0AEEBB2E001C01D92A139B2070B
:1002F000E1F711E0CFE5D1E004C02197FE010E94B3
:100300005330CE35D107C9F70E948B1F0C94F331BF
:100310000C940000CF93DF93EC01FA013296E60FC4
:10032000F71FDC019D012C1B3D0BCF01861B970B9A
:100330004D91442311F04193F5CFAC01421B530B77
:10034000640F751FFB013297308361507109FB0107
:100350002083DF91CF9108958CBD9DBD089520E34A
:10036000FC0120833296862F82958F706F706A30E1
:1003700030F4605D6293682F8111F5CF0895695C58
:10038000F9CFCF92DF92EF92FF92CF93DF93B091AC
:100390004305A0E08111AB2F8091440590E0880FC8
:1003A000991FAC0146575D4FC0904905D0904A0552
:1003B000E0904B05F0904C0530E020E0FA01C5914B
:1003C000D491E881B90190E080E0EB23EA130AC000
:1003D0002F5F3F4F6C157D058E059F0578F36FEFFE
:1003E0007FEFCB01DF91CF91FF90EF90DF90CF9027
:1003F0000895FC01818D928D08950895833081F0D8
:1004000028F4813099F08230A9F008958730A9F05E
:100410008830C9F08430B1F4809180008F7D03C0B2
:10042000809180008F7780938000089584B58F77C6
:1004300084BD089584B58F7DFBCF8091B0008F7708
:100440008093B00008958091B0008F7DF9CFCF9355
:10045000DF93282F30E0F901EA58FD4F8491F9012C
:10046000E855FD4FD491F901EC56FD4FC491CC23D2
:10047000A1F081110E94FE01EC2FF0E0EE0FFF1FB2
:10048000E657FD4FA591B491EC91ED2381E090E00A
:1004900009F480E0DF91CF91089580E090E0FACFF9
:1004A0001F93CF93DF93282F30E0F901EA58FD4FD7
:1004B0008491F901E855FD4FD491F901EC56FD4FB7
:1004C000C491CC23A9F0162F81110E94FE01EC2FBC
:1004D000F0E0EE0FFF1FE459FD4FA591B4918FB7E7
:1004E000F894EC91111108C0D095DE23DC938FBFF6
:1004F000DF91CF911F910895DE2BF8CFCF93DF933B
:1005000090E0FC01E855FD4F24918C569D4FFC0175
:1005100084918823C9F090E0880F991FFC01EE595F
:10052000FD4FA591B491FC01E459FD4FC591D491C3
:1005300061110DC09FB7F8948C91209582238C9304
:100540008881282328839FBFDF91CF91089562304F
:1005500051F49FB7F8943C91822F809583238C931C
:10056000E8812E2BEFCF8FB7F894EC912E2B2C93A4
:100570008FBFEACF3FB7F894809130049091310457
:10058000A0913204B091330426B5A89B05C02F3F3B
:1005900019F00196A11DB11D3FBFBA2FA92F982FA9
:1005A0008827BC01CD01620F711D811D911D42E0A4
:1005B000660F771F881F991F4A95D1F708958F926C
:1005C0009F92AF92BF92CF92DF92EF92FF924B0138
:1005D0005C010E94BA026B017C010E94BA026C1994
:1005E0007D098E099F09683E734081059105A8F336
:1005F00021E0821A9108A108B10888EEC80E83E0B4
:10060000D81EE11CF11C81149104A104B10429F746
:10061000FF90EF90DF90CF90BF90AF909F908F9022
:1006200008952FB7F89460912C0470912D04809157
:100630002E0490912F042FBF0895CF92DF92EF9256
:10064000FF920F931F93CF93DF93CDB7DEB7C054C4
:10065000D1400FB6F894DEBF0FBECDBF0E9411038C
:1006600000914505109146052091470530914805B8
:100670006B017C01C01AD10AE20AF30A97018601D4
:10068000003D17402105310590F480914D05C05C77
:10069000DE4F0FB6F894DEBF0FBECDBFDF91CF9116
:1006A0001F910F91FF90EF90DF90CF90089560938E
:1006B0004505709346058093470590934805109231
:1006C000400510923F0510923E0510923D05109294
:1006D0003C0562E0809141050E947E0261E070E08D
:1006E00080E090E00E94DF0261E0809141050E947D
:1006F0007E0260E0809141050E9450028091420597
:100700008551823020F58BE291E10197F1F762E0AB
:10071000809141050E947E0280914E0590E08230DA
:10072000910538F0880F991F880F991F0597019739
:10073000F1F7F89480E00E94C1016F3F7F4F8F4F27
:100740009F4F61F410924D05789480E0A0CF64E152
:1007500070E080E090E00E94DF02D9CF81E00E944B
:10076000C1016F3F7F4F8F4F9F4F61F38E010F5F2E
:100770001F4F6E012FEBC21A2EEFD20A780180E0D4
:100780000E94C101F701608371838283938381E0BA
:100790000E94C101F7016483758386839783F8E023
:1007A000EF0EF11CEC14FD0451F7789430E020E0DA
:1007B000F801C080D180E280F38044815581668158
:1007C0007781FFEFCF16DF06EF06FF0631F04F3FD0
:1007D0008FEF58076807780719F410924D05B5CFC9
:1007E000F90183E0F595E7958A95E1F7E45CFA4F26
:1007F0008081880FC416D506E606F70610F18083BF
:100800002F5F3F4F085F1F4F2832310589F6409117
:10081000400520913C0580913D05280F3327331F6B
:1008200080913E05280F311D80913F05820F932F47
:10083000911D99274817190681F681E080934D058F
:1008400026CF8160DCCFAF92BF92CF92DF92EF9242
:10085000FF920F931F93CF93DF936C017B018B016A
:10086000040F151FEB015E01AE18BF08C017D107BA
:1008700059F06991D601ED91FC910190F081E02D44
:10088000C6010995892B79F7C501DF91CF911F9199
:100890000F91FF90EF90DF90CF90BF90AF900895B1
:1008A000FC01538D448D252F30E0842F90E0821B76
:1008B000930B541710F0CF96089501970895FC01FB
:1008C000918D828D981761F0A28DAE0FBF2FB11D53
:1008D0005D968C91928D9F5F9F73928F90E00895AB
:1008E0008FEF9FEF0895FC01918D828D981731F065
:1008F000828DE80FF11D858D90E008958FEF9FEFB9
:100900000895FC01918D228D892F90E0805C9F4F8E
:10091000821B91098F739927089581E594E00E94C5
:10092000810421E0892B09F420E0822F089580E0E2
:1009300090E0892B29F00E948D0481110C94000015
:100940000895FC01A48DA80FB92FB11DA35ABF4F64
:100950002C91848D90E001968F739927848FA689BE
:10096000B7892C93A089B1898C91837080648C9312
:10097000938D848D981306C00288F389E02D8081C1
:100980008F7D80830895EF92FF920F931F93CF93F3
:10099000DF93EC0181E0888F9B8D8C8D98131AC0BA
:1009A000E889F989808185FF15C09FB7F894EE89A1
:1009B000FF896083E889F9898081837080648083FE
:1009C0009FBF81E090E0DF91CF911F910F91FF9049
:1009D000EF900895F62E0B8D10E00F5F1F4F0F73F1
:1009E0001127E02E8C8D8E110CC00FB607FCFACFAC
:1009F000E889F989808185FFF5CFCE010E94A104A5
:100A0000F1CFEB8DEC0FFD2FF11DE35AFF4FF0827C
:100A10009FB7F8940B8FEA89FB8980818062CFCFE2
:100A2000CF93DF93EC01888D8823B9F0AA89BB8925
:100A3000E889F9898C9185FD03C0808186FD0DC010
:100A40000FB607FCF7CF8C9185FFF2CF808185FF31
:100A5000EDCFCE010E94A104E9CFDF91CF9108959F
:100A6000CF93DF93FC01A481B581109711F480E04E
:100A700029C0EC01ED91FC9111970688F789E02DD2
:100A8000CD0109952FA138A5811119C0232B79F724
:100A90008DEF9FEF98A78FA38C819D81DC01ED9155
:100AA000FC910680F781E02D09958C819D81DC0108
:100AB000ED91FC910488F589E02D0995D8CF81E06E
:100AC000232BA9F6DF91CF910895CF92DF92EF9279
:100AD000FF920F931F93CF93DF9300D000D0CDB739
:100AE000DEB78C01F90180E0DE0111967D019E2FB9
:100AF0009F77EE0FEF2FEE1FFF0BF195309709F068
:100B00009068D701A80FB11D9C938F5F309779F73C
:100B100090E0FA01E81BF90B6483FA01E81BF90B7A
:100B20003596D701BD016E197F09681779071CF446
:100B30006D916193F7CFFC013196D80114968D9198
:100B40009C917F01E20EF31EBA016E1B7F0B6B5F5F
:100B50007F4FDC01ED91FC910280F381E02DA70134
:100B600009956C010E941103F801608B718B828BD7
:100B7000938B81E0EC14FD0409F080E00F900F905E
:100B80000F900F90DF91CF911F910F91FF90EF90F9
:100B9000DF90CF900895EF92FF920F931F93CF9322
:100BA000DF93EC018B017A010E941103688B798B32
:100BB0008A8B9B8B8C819D81DC01ED91FC91028065
:100BC000F381E02DA701B801DF91CF911F910F9123
:100BD000FF90EF9009941F93CF93DF93EC01162FB2
:100BE0000E941103688B798B8A8B9B8B8C819D81F2
:100BF000DC01ED91FC910190F081E02D612FDF91FE
:100C0000CF911F9109948F929F92AF92BF92CF92F2
:100C1000DF92EF92FF920F931F93CF93DF93EC013C
:100C20008B010E9411034B015C018C819D81DC01D1
:100C3000ED91FC910084F185E02D0995892BA9F4B3
:100C40000E9411036B017C01C818D908EA08FB084F
:100C50002C853D85A8EEB3E00E94712EC616D706FE
:100C6000E806F90610F380E00CC08C819D81DC0160
:100C7000ED91FC910284F385E02D0995F8018083C4
:100C800081E0DF91CF911F910F91FF90EF90DF9066
:100C9000CF90BF90AF909F908F9008953F924F92CA
:100CA0005F926F927F928F929F92AF92BF92CF92FC
:100CB000DF92EF92FF920F931F93CF93DF93CDB705
:100CC000DEB764970FB6F894DEBF0FBECDBF8C01C0
:100CD0006B01DC0116966D917C910E9403068111D7
:100CE0001BC060E070E0CB0164960FB6F894DEBFE5
:100CF0000FBECDBFDF91CF911F910F91FF90EF906D
:100D0000DF90CF90BF90AF909F908F907F906F902B
:100D10005F904F903F900895D8011696ED91FC9109
:100D200030801982E1E0F0E0FB83EA83412C512C12
:100D30003201812C912C54018394BE016F5F7F4F4F
:100D4000C8010E940306882361F2EA80FB80BFEF9E
:100D5000EB1AFB0A8981D8011696ED91FC912A8144
:100D60003B81E20FF31F8083E981AE2FAF77B0E0C4
:100D7000A50194010E94052E460E571E681E791E7D
:100D800037E0880C991CAA1CBB1C3A95D1F7E7FDEB
:100D900044C0332D307F332E8FEF8E0DD6018C93D0
:100DA000B0E33B1353C0F801668177816E0D7F1D60
:100DB000C8010E940306882309F493CFD801169630
:100DC0006D917C918A819B810296680F791FC80181
:100DD0000E940306882309F484CFEA80FB80B3E0F5
:100DE000EB0EF11CD8011696ED91FC91D6018C9179
:100DF000DF01A80FB11D11968C91119790E0982FEB
:100E0000882712962C91820F911D208121FD029638
:100E1000F2E0E0E030E020E01FC0FB82EA829701D0
:100E20002530310509F089CF8FEF9FEFD8019896D3
:100E30009C938E93979714968D919C91DC01ED91E4
:100E4000FC910488F589E02D09954BCFF0E0E0E0B6
:100E500030E020E090E080E0A70170E060E08F2EBD
:100E60009E2EA32EB22E481959096A097B094E837A
:100E70005F83688779879C0150E040E02B873C873F
:100E80004D875E874E815F8168857985480D591D44
:100E90006A1D7B1D4A835B836C837D838414950468
:100EA000A604B70408F051C0BE016F5F7F4FC801B0
:100EB0000E940306882309F414CFD80195960D905B
:100EC000BC91A02DBC8BAB8BAB2B49F1B0E33B129B
:100ED00026C0F60120814EEF5FEF6FEF7FEF421BE0
:100EE0005109610971098A819B81AC81BD81480FDB
:100EF000591F6A1F7B1F8B859C85AD85BE85841716
:100F00009507A607B70758F4AB89BC89ED91FC910A
:100F100011970190F081E02D6981CD010995F801CB
:100F200080859185E816F90650F489810680F7815D
:100F3000E02DEE0DFF1D8083FFEFEF1AFF0A2FEF6C
:100F4000821A920AA20AB20A9DCFD80195968D9173
:100F50009C919697892B81F418968D919C91B0E085
:100F6000A0E02A813B814C815D8182179307A40711
:100F7000B50710F4F12CE12CB70190E080E0B4CE7D
:100F8000FC0120812EBD9B012150310941F051818E
:100F90000DB407FEFDCF4EB55EBD4193F5CF615058
:100FA0007109860F971F0DB407FEFDCF2EB5FC010A
:100FB00020830895E091C402F091C5028081909150
:100FC000C302892B80830895E091C402F091C50289
:100FD00090818091C30280958923808308958EBD7E
:100FE00000000DB407FEFDCF8EB50895AF92BF92FD
:100FF000CF92DF92EF92FF920F931F93CF93DF93E5
:10100000CDB7DEB728970FB6F894DEBF0FBECDBFC1
:101010008C017B016A01809150048333E1F4580113
:10102000A40EB51EA016B10609F46FC00E94E40715
:1010300080EF0E94EF07812F0E94EF07802F0E9410
:10104000EF070F5F1F4FF70181917F010E94EF07AC
:101050000E94DA07E7CF5B01A40EB51E8433C1F40A
:101060000E94E40719830A838D2D80688B83CC82CC
:1010700064E070E0CE0101960E94C007AE14BF0488
:1010800009F441C0F70181917F010E94EF07F6CF7B
:101090000E94E4070F3F110509F028F419820A8322
:1010A00084E08B830CC017FD17C019820A8333E0DC
:1010B000169507953A95E1F7007E0C600B8386E064
:1010C000C816D104A0F5F701DE011496EA15FB0558
:1010D00099F081918D93FACFC80126E09695879576
:1010E0002A95E1F7807E19830A830115104C10F4CC
:1010F0008461D7CF8C61D5CFB6016D5F7F4FCE01B4
:1011000001960E94C0070E94DA07C60128960FB612
:10111000F894DEBF0FBECDBFDF91CF911F910F912D
:10112000FF90EF90DF90CF90BF90AF90089563E075
:1011300070E0CE0101960E94C007F70181917F0106
:101140000E94EF07AE14BF04C1F7DDCFCF93DF934A
:101150001F92CDB7DEB7898341E050E0BE016F5FDB
:101160007F4F90E080E00E94F6070F90DF91CF91D3
:10117000089590E020915004233339F40C96982F71
:10118000990F990F990F80E008954896F8CFDA01EA
:10119000E091C702F0E0FE2FEE27E60FF71F90E088
:1011A000982F8827A901BD018E0F9F1F0C94F60769
:1011B000CF93DF9300D0CDB7DEB779836A8322E087
:1011C00030E0AE014F5F5F4F60E170E00E94C70802
:1011D0000F900F90DF91CF910895CF93DF9300D0C0
:1011E000CDB7DEB779836A8322E030E0AE014F5F8E
:1011F0005F4F64E070E00E94C7080F900F90DF918E
:10120000CF910895CF93DF931F92CDB7DEB7209192
:10121000C70230E0322F2227260F371F90E0982F89
:101220008827498341E050E0BE016F5F7F4F820F06
:10123000931F0E94F6070F90DF91CF910895CF93EF
:10124000DF931F92CDB7DEB76983DC01ED91FC918E
:101250000280F381E02D41E050E0BE016F5F7F4FDF
:1012600009950F90DF91CF9108950895FC01948521
:10127000FB018485981303C081E0943008F080E07E
:101280000895CF93DF931F92CDB7DEB76983DC015A
:10129000ED91FC910280F381E02D41E050E0BE0130
:1012A0006F5F7F4F09950F90DF91CF91089544E0D4
:1012B00050E0BC018FE090E00C94F6070895FF9297
:1012C0000F931F93CF93DF93EB01FC01178A168ACC
:1012D0002A81211109C02B81211106C02C812111E5
:1012E00003C02D81222301F141155105E9F08A0146
:1012F000FC01F08C80E591E00E94AC01AE014E5FF4
:101300005F4F24E030E06CE070E08F2D0E94C70852
:10131000B8018F2D0E94D80881E090E0DF91CF9135
:101320001F910F91FF90089580E0F7CFFC01848515
:1013300095850895FC018489958908952DE931E00A
:10134000FC0131832083FB014089518962897389C3
:10135000FC0142835383648375830895DC01ED911E
:10136000FC91048CF58DE02D099490E080E00895C7
:10137000FC01768765870895DC01ED91FC9102A060
:10138000F3A1E02D099591E089270895862F08950E
:1013900081E08627089521E0FC018485843008F0EF
:1013A00020E0822F08950895AF92BF92CF92DF92EE
:1013B000EF92FF920F931F93CF93DF937C016B010A
:1013C000EA0189010E943005882309F442C0D7014F
:1013D0001896AD90BC90B501C6010E9401299801F4
:1013E000295F3F4F820F931FA816B90690F1F701AE
:1013F0006681778145E050E0C6010E948A01BE0106
:10140000600F711FFE01EC01CE1BDF0B6E01CE0ED3
:10141000DF1ED70116964D915C916E177F0731F054
:101420002191D601A40FB51F2C93F0CF05501109BF
:101430009801280F391F60E3C701DF91CF911F91F9
:101440000F91FF90EF90DF90CF90BF90AF900C94F2
:10145000650580E0DF91CF911F910F91FF90EF9094
:10146000DF90CF90BF90AF900895CF92DF92EF9230
:10147000FF920F931F93CF93DF93CDB7DEB7C05486
:10148000D1090FB6F894DEBF0FBECDBF8B019F937D
:101490008F938FE991E09F938F9382E691E09F93E2
:1014A0008F931F9280E48F93CE0101966C019F93DE
:1014B0008F930E940C29E090C102F090C2020FB6F7
:1014C000F894DEBF0FBECDBF90E080E0011511059E
:1014D00031F0F70160857185C8010E9401299C01E6
:1014E000A801B601C7010E94D409C05CDF4F0FB646
:1014F000F894DEBF0FBECDBFDF91CF911F910F914A
:10150000FF90EF90DF90CF900895CF93DF93EC01A1
:1015100087E691E09F938F938091BE021F928F93F5
:101520008091C0028F938091BF028F930E940C29FB
:101530000F900F900F900F900F900F906091BF023F
:101540007091C002CE01DF91CF910C94350AAF9219
:10155000BF92CF92DF92EF92FF920F931F93CF93A0
:10156000DF9300D000D0CDB7DEB78C016B017A01DC
:10157000809150048333E9F45B016801C40ED51EE9
:10158000C016D106A9F10E94E4078FE00E94EF0780
:10159000812F0E94EF07802F0E94EF070F5F1F4FE0
:1015A00080E00E94EF07F50181935F010E94DA0756
:1015B000E7CF843369F50E94E40719830A838F2DEE
:1015C0008F778B83EC8264E070E0CE0101960E94FD
:1015D000C007A70170E060E0C6010E94A631E114D7
:1015E000F10421F0B701C6010E94C0070E94DA078A
:1015F000C7010F900F900F900F90DF91CF911F9127
:101600000F91FF90EF90DF90CF90BF90AF90089533
:101610000E94E4070F3F110509F030F419820A8394
:101620001B8263E070E0D1CF17FD0BC019820A83E3
:1016300033E0169507953A95E1F7007E08600B8335
:10164000F0CFC80126E0969587952A95E1F7807E30
:1016500019830A830115104C18F480618B83E1CF44
:101660008861FCCFCF93DF931F92CDB7DEB7209177
:10167000C70230E0322F2227260F371F90E0982F25
:10168000882741E050E0BE016F5F7F4F820F931FBC
:101690000E94A70A89810F90DF91CF910895CF937F
:1016A000C82F462F61E070E00E94020961E070E0FF
:1016B0008C2F0E94320B8111F9CFCF910895CF93D7
:1016C000C82F80E591E00E94AC0168E070E08C2FAB
:1016D000CF910C944F0BCF93C82F80E591E00E94DF
:1016E000AC0160E170E08C2FCF910C944F0BCF9345
:1016F000DF93EC01888D843020F40E946B0B84E032
:10170000888FDF91CF910895CF93C82F80E591E026
:101710000E94AC0163E070E08C2FCF910C94320BEF
:10172000CF93DF93EC018C858430D0F40E94840B3E
:10173000843189F0882379F0883169F021E08C3197
:1017400059F4E881F9810084F185E02DCE010995F5
:1017500021E0892B09F420E0822FDF91CF910895B9
:1017600080E0FBCFCF92DF92EF92FF92CF93DF9397
:10177000EC018C85843068F40E945F0B0E94110399
:101780006B017C018C850E94840B811109C084E06F
:101790008C87DF91CF91FF90EF90DF90CF900895ED
:1017A00061E070E080E090E00E94DF020E9411039F
:1017B000AB01BC014C195D096E097F098D859E85C1
:1017C000B0E0A0E0481759076A077B07D8F28C857C
:1017D0000E946B0BDCCFCF93FC01C08D80E591E0C4
:1017E0000E94AC0160E270E08C2F0E944F0B62E01F
:1017F00070E08C2F0E94320B84FD16C062E070E016
:101800008C2F0E94320B83FF0AC048E162E070E037
:101810008C2F0E94020980E090E0CF91089580E52E
:1018200091E00E94AC01E3CF40E162E070E08C2FD8
:101830000E94020981E0F0CFCF93DF931F92CDB7D2
:10184000DEB741E050E0BE016F5F7F4F90E080E087
:101850000E94A70A89810F90DF91CF910895CF93BD
:10186000DF93C4E1D0E00E941C0C882361F061E0AA
:1018700070E080E090E00E94DF022197A1F780E015
:10188000DF91CF91089581E0FBCF1F93CF93DF933A
:101890001F92CDB7DEB7182F80E591E00E94AC0112
:1018A000812F0E94B90827E0129FF0011124EC5CFF
:1018B000FB4F22813381377041E050E0BE016F5F02
:1018C0007F4F820F931F0E94A70A89810F90DF919B
:1018D000CF911F910895FC01808D843040F4218DBB
:1018E000328D232B21F00E94450C90E008958FEF5C
:1018F0009FEF0895CF93DF93FC012485243028F0D7
:101900008FEF9FEFDF91CF910895EC010190F0816F
:10191000E02D0084F185E02D0995892B89F38C85D4
:101920000E94450C90E0EECFDA01E091C702F0E0B2
:10193000FE2FEE27E60FF71F90E0982F8827A901CA
:10194000BD018E0F9F1F0C94A70A8F929F92AF929A
:10195000BF92CF92DF92EF92FF921F93CF93DF93CC
:10196000CDB7DEB72C970FB6F894DEBF0FBECDBF54
:101970002091500414E0222339F16B017C0180E5B1
:1019800091E00E94AC015E0127E0A20EB11C45016E
:1019900010E063E070E0812F0E94320BF40181932C
:1019A0004F01882349F11F5F143099F710E0F501CA
:1019B00081915F018D31D9F08831C9F08A5182302F
:1019C000B0F01F5F143099F7812F2C960FB6F89462
:1019D000DEBF0FBECDBFDF91CF911F91FF90EF9083
:1019E000DF90CF90BF90AF909F908F90089560E16F
:1019F00070E0812F0E944F0BA12EB12C83EE93E05B
:101A00000197F1F742E870E060E0812F0E9402093F
:101A10004FEF62E070E0812F0E940209B601C1140D
:101A2000D10491F4809106019091070101968115EE
:101A3000F0EC9F0708F45CC09093070180930601C7
:101A40006091060170910701812F0E94ED0886E0E8
:101A5000E2E1F1E0DE01119601900D928A95E1F745
:101A6000F70183818F778C8384818D8385818E8339
:101A7000A7014E5F5F4F24E030E06CE070E0812F03
:101A80000E94C708B601812F0E94D80826E030E0E6
:101A9000AE014F5F5F4F66E070E0812F0E94C70884
:101AA00061E070E0812F0E944F0B27E02A9DC0016A
:101AB0002B9D900D11249C012C5C3B4F7901F90169
:101AC0001182108222E030E0AE01455F5F4F68E294
:101AD00070E0812F0E94940C8B859C859827892724
:101AE0009827F701938382831682158214826CCF24
:101AF00080E090ECA1CFCF92DF92EF92FF920F9314
:101B00001F93CF93DF9300D000D000D0CDB7DEB7C6
:101B10008C016B017A01FC01808D843010F40E94ED
:101B20006B0B8DE991E09A838983F6018281938121
:101B3000A481B5818B839C83AD83BE83B701CE0125
:101B400001960E94A50CF801808F8430A0F4F586E0
:101B5000E486128E118E81E026960FB6F894DEBFD1
:101B60000FBECDBFDF91CF911F910F91FF90EF90EE
:101B7000DF90CF90089580E0EFCFAF92BF92CF92E9
:101B8000DF92EF92FF920F931F93CF93DF9300D0DA
:101B900000D000D0CDB7DEB7082F6B0180E591E013
:101BA0000E94AC019E012F5F3F4F7901590110E067
:101BB00063E070E0812F0E94320BF50181935F0199
:101BC000882341F11F5F143099F710E0F7018191EC
:101BD0007F018D31D1F08831C1F08A518230A8F077
:101BE0001F5F143099F7812F26960FB6F894DEBF49
:101BF0000FBECDBFDF91CF911F910F91FF90EF905E
:101C0000DF90CF90BF90AF90089560E170E0812F9A
:101C10000E944F0BE12EF12C83EE93E00197F1F738
:101C2000402F70E060E0812F0E9402094FEF62E0D8
:101C300070E0812F0E940209B601CD2889F48091BD
:101C400006019091070101968115F0EC9F0798F12C
:101C5000909307018093060160910601709107013E
:101C6000812F0E94ED0861E070E0812F0E944F0BF0
:101C700027E02E9DC0012F9D900D11249C012C5C0E
:101C80003B4F7901F9011182108222E030E0AE0170
:101C90004B5F5F4F68E270E0812F0E94940C8D8152
:101CA0009E81982789279827F7019383828316823C
:101CB0001582148298CF80E090ECCACFCF92DF9249
:101CC000EF92FF921F93CF93DF93EC017B016A01A8
:101CD0008C85843048F40E94840B882319F08C850D
:101CE0000E945F0B84E08C87F70182819381A4813D
:101CF000B5810097A105B10551F490E080E0DF9136
:101D0000CF911F91FF90EF90DF90CF9008958F3F7C
:101D10009F4FAF4FBF4F89F380915004811103C093
:101D200084E08C87EACF70E060E081E20E94BD0D24
:101D3000182F8C87843008F780E591E00E94AC0171
:101D4000A7014E5F5F4F24E030E06CE070E0812F30
:101D50000E94C708B601812F0E94D80864E070E095
:101D6000812F0E944F0B0E9411036B017C018C8517
:101D70000E94840B873109F18C31F9F0882309F432
:101D8000BCCF0E941103AB01BC014C195D096E0967
:101D90007F098D859E85B0E0A0E084179507A60792
:101DA000B70738F061E070E080E090E00E94DF0269
:101DB000DECF8C850E946B0BB3CF81E090E09FCF8C
:101DC0000F931F93CF93DF93EC018B01888D8430A9
:101DD00010F40E946B0B80915004811107C094E0B5
:101DE000988FDF91CF911F910F910895B80182E0F4
:101DF0000E94BD0D888F843030F41D870C871A8EA9
:101E0000198E81E0EECF80E0ECCF7F928F929F928F
:101E1000AF92BF92CF92DF92EF92FF920F931F93F8
:101E2000CF93DF9300D0CDB7DEB7782E8B014A0178
:101E3000590122E030E0AE014F5F5F4F64E270E095
:101E40000E94940CE980FA80FE24EF24FE24E00E28
:101E5000F11E9701377040915004072D10E0433375
:101E600009F042C0085F1F4F102F0027110F110FFC
:101E7000110FC901800F911F4733C9F1A9014A0D04
:101E80005B1D4130584098F160E078E06B01C21A68
:101E9000D30AA601B4010E94F607A5014C195D09F9
:101EA000B4016C0D7D1DC8010E94F607EA0CFB1CF5
:101EB000F982EA8222E030E0AE014F5F5F4F64E2D8
:101EC00070E0872D0E94C7080F900F90DF91CF918F
:101ED0001F910F91FF90EF90DF90CF90BF90AF9048
:101EE0009F908F907F900895005F1F4FBDCFA501F9
:101EF000B401DACFEF92FF921F93CF93DF9300D01C
:101F0000CDB7DEB7182F22E030E0AE014F5F5F4F54
:101F100060E270E00E94940CE980FA80FE24EF24D5
:101F2000FE2422E030E0AE014F5F5F4F60E270E0E0
:101F3000812F0E94940C89819A819827892798275C
:101F4000E816F90689F487E0189FF0011124EC5C8B
:101F5000FB4FF582E482C7010F900F90DF91CF9184
:101F60001F91FF90EF9008957C01DBCF1F93CF93DB
:101F7000DF93182F80E591E00E94AC01812F0E9431
:101F80007A0FEC0163E070E0812F0E94320B873101
:101F900021F08C3111F0D0E0C0E0CE01DF91CF9183
:101FA0001F910895CF93DF93EC018C85843060F40A
:101FB0000E94840B873111F08C3131F48C850E94A2
:101FC000B60F8115984088F3DF91CF910895FC01F9
:101FD0008485843010F40C94B60F90E080E008956E
:101FE0009F92AF92BF92CF92DF92EF92FF920F93A8
:101FF0001F93CF93DF938C015B01942EE52EFC01A0
:10200000C688D788F08C80E591E00E94AC018F2DC6
:102010000E947A0FC92DDE2D8C179D0708F4EC0164
:102020009E01A501B6018F2D0E94050FF80186893A
:1020300097898C0F9D1F978B868BCE01DF91CF9157
:102040001F910F91FF90EF90DF90CF90BF90AF90D6
:102050009F9008958F929F92AF92BF92CF92DF92FE
:10206000EF92FF920F931F93CF936C015B018A0154
:10207000FC01C485C430F0F57A014130584018F0B5
:10208000E12C88E0F82E80E591E00E94AC018C2FD5
:102090000E947A0F4C0163E070E08C2F0E94320B9B
:1020A000873111F08C3149F58E149F0460F380E57F
:1020B00091E00E94AC019701A50170E060E08C2FD7
:1020C0000E94050F60E270E08C2F0E944F0B62E0CF
:1020D00070E08C2F0E94320B84FD17C063E070E02B
:1020E0008C2F0E94320B81110BC081E090E0F60131
:1020F0009383828310E000E010C0F12CE12CD7CF55
:1021000080E591E00E94AC01E2CF40E162E070E046
:102110008C2F0E940209EF2841F3C801CF911F9133
:102120000F91FF90EF90DF90CF90BF90AF909F9076
:102130008F900895FF920F931F93CF93DF9300D05A
:10214000CDB7DEB7F82E22E030E0AE014F5F5F4F33
:1021500066E270E00E94940C09811A811027012721
:10216000102722E030E0AE014F5F5F4F66E270E083
:102170008F2D0E94940C89819A819827892798270E
:102180000817190749F4C8010F900F90DF91CF91FC
:102190001F910F91FF9008958C01E3CF1F93CF9370
:1021A000DF93182F87E0189FE0011124CC5CDB4FF0
:1021B00088819981009761F480E591E00E94AC01EB
:1021C000812F0E949A102E81821B91099983888306
:1021D000DF91CF911F910895FC018485843010F424
:1021E0000C94CE1090E080E008954F925F927F9221
:1021F0008F929F92AF92BF92CF92DF92EF92FF9217
:102200000F931F93CF93DF9300D0CDB7DEB7782E17
:102210006B014A01A82EB12C27E0829FC001112436
:10222000FC01EC5CFB4F7F010081118180E591E0B6
:102230000E94AC010815190554F4872D0E949A10CC
:10224000F70126818C01021B1109118300830115FE
:10225000110529F563E070E0872D0E94320B84316F
:1022600059F0882349F001E010E08C3111F410E0BE
:1022700000E0119501951109C8010F900F90DF91B1
:10228000CF911F910F91FF90EF90DF90CF90BF9073
:10229000AF909F908F907F905F904F9008958016A1
:1022A00091060CF4840187E08A9DF0018B9DF00D6E
:1022B0001124EC5CFB4FE280F380C114D10451F196
:1022C0002701F7E05F22872D0E94B908840D951D34
:1022D00020915004273309F453C09801240D351D73
:1022E0002130384008F44CC020E038E0490184181F
:1022F0009508A401B6010E94A70A2601480C591CA2
:102300006801C818D908872D0E94B908A601B20132
:102310000E94A70AE00EF11E87E08A9DF0018B9DC6
:10232000F00D1124EC5CFB4FF382E28220813181BD
:10233000201B310B318320838681800F912F911DCB
:102340008A3F910510F4232BF1F487E08A9DF00178
:102350008B9DF00D1124EC5CFB4F1682F982EA8212
:1023600022E030E0AE014F5F5F4F68E270E0872D02
:102370000E94C70860E470E0872D0E944F0B7CCF5D
:10238000A801B601C5CF868377CFCF93DF93FC0139
:10239000218D328D2115310529F48FEF9FEFDF91CB
:1023A000CF910895EC01808D4217530708F0A901E1
:1023B0000E94F5101816190684F7298D3A8D281BEE
:1023C000390B3A8F298FEBCF0F931F93CF93DF9366
:1023D0001F92CDB7DEB7FC01218D328D232B41F446
:1023E0008FEF9FEF0F90DF91CF911F910F91089585
:1023F0008C0141E050E0BE016F5F7F4FFC01808D9A
:102400000E94F510181619065CF7F801818D928D5F
:102410000197928F818F898190E0E4CFCF93DF93F2
:102420001F92CDB7DEB741E050E0BE016F5F7F4F36
:10243000FC0184850E94F5101816190634F4898170
:1024400090E00F90DF91CF9108958FEF9FEFF9CF3C
:10245000FC018485843010F40C94F51090E080E049
:1024600008950F931F93CF93DF9300D0CDB7DEB7BE
:10247000FC0124852430E0F48C0180E591E00E9489
:10248000AC0122E030E0AE014F5F5F4F60E170E0F1
:10249000F80184850E94940C89819A819827892764
:1024A00098270F900F90DF91CF911F910F91089572
:1024B00090E080E0F6CF0F931F93CF93DF9300D08F
:1024C000CDB7DEB7FC0124852430E0F48C0180E533
:1024D00091E00E94AC0122E030E0AE014F5F5F4F1F
:1024E00064E070E0F80184850E94940C89819A81EF
:1024F0009827892798270F900F90DF91CF911F91F0
:102500000F91089590E080E0F6CFDC018DE991E035
:102510008D939D9384E0FB0101900D928A95E1F7E4
:102520000895EF92FF920F931F93CF93DF9300D004
:1025300000D0CDB7DEB78C017B01FB0184858430F0
:10254000A8F08DE991E0F8019183808312821382D3
:1025500014821582C8010F900F900F900F90DF9199
:10256000CF911F910F91FF90EF90089580E591E03A
:102570000E94AC0124E030E0AE014F5F5F4F6CE0A1
:1025800070E0F70184850E94940CBE016F5F7F4F5D
:10259000C8010E948512DECF0F931F93CF93DF9364
:1025A000CDB7DEB728970FB6F894DEBF0FBECDBF0C
:1025B0008C01D80159964D915C915A97411551055E
:1025C00051F0ED91FC91048CF58DE02D70E060E010
:1025D000C8010995EECFF801808D0E94CE10892B9D
:1025E000B1F148E050E0BE016F5F7F4FD8015896CF
:1025F0008C910E94F51018161906F4F4D801509623
:1026000084E0FE01319601900D928A95E1F78D816B
:1026100090E0982F88272E81820F911DF801958BCD
:10262000848B8F81282F30E0322F22278885820FDC
:10263000932F911D928F818F28960FB6F894DEBF4D
:102640000FBECDBFDF91CF911F910F91089590E004
:1026500080E0F2CF4F925F926F927F928F929F9223
:10266000AF92BF92CF92DF92EF92FF920F931F93A0
:10267000CF93DF93CDB7DEB763970FB6F894DEBF85
:102680000FBECDBF7C016B013A01FB0120E090E061
:1026900080E06AE03191332309F461C040ED430FDB
:1026A0004A3008F04DC0689FA001699F500D112469
:1026B000CA01C097830F911D37FD9A958F3F9105F1
:1026C00049F340F3F7014281538164817581809120
:1026D000200590912105A0912205B091230548176E
:1026E00059076A077B0709F40DC28701085F1F4F6E
:1026F0000E9411036F7077277C5FC8010E94E00E73
:10270000813009F004C28DE991E09A838983F70151
:1027100082819381A481B5818B839C83AD83BE83A9
:1027200045E350E0BE016F5F7F4FC8010E945F0923
:10273000892BA9F5D12CC12CC8010E94770B17C099
:102740003E3209F0BFCF233009F4BCCFD301A20F32
:10275000B11D12968C932F5F90E080E09BCF2330C9
:1027600009F0B0CFF3018583CC24C394D12CC601EA
:1027700063960FB6F894DEBF0FBECDBFDF91CF9149
:102780001F910F91FF90EF90DF90CF90BF90AF908F
:102790009F908F907F906F905F904F9008950E94D0
:1027A0001103F7017783668342E050E0B7016A5F67
:1027B0007F4FC8010E94F00F81E090E09A838983E7
:1027C00042E050E0BE016F5F7F4FC8010E94F00FF2
:1027D00080E091E09A83898342E050E0BE016F5F20
:1027E0007F4FC8010E94F00F1A82198242E050E028
:1027F000BE016F5F7F4FC8010E94F00F42E050E0C2
:10280000BE016F5F7F4FC8010E94F00F42E050E0B1
:10281000BE016F5F7F4FC8010E94F00F5601F601A5
:102820008081882301F16501F60181912F018823C0
:1028300011F08E32B1F446018A189B08181419045D
:1028400074F48D8641E050E0BE01635F7F4FC801A4
:102850000E94F00FA401B501C8010E94F00F5201BF
:10286000DECF6201E1CF1D8641E050E0BE01635F33
:102870007F4FC8010E94F00FC12CDD24D394DA826F
:10288000C98242E050E0BE016F5F7F4FC8010E94E5
:10289000F00FDA82C98242E050E0BE016F5F7F4FE5
:1028A000C8010E94F00FC8010E94EB0B892B09F4AC
:1028B00041CFF3E0AF2EB12C230122E0420E511C98
:1028C000D4C0F7014281538164817581808D918DDF
:1028D000A28DB38D481759076A077B0709F008C115
:1028E000848D958DC59709F003C181A192A15DEFFB
:1028F000C52EDD24DA940C970CF4ADC04CE050E00A
:10290000BE016F5F7F4FC8010E94C5118B819C8102
:102910009827892798279A8B898BF70146815781B9
:1029200029813A814217530709F0E7C097FFE5C0B4
:102930008F7092703BEFC32EDD24DA94892B09F05F
:102940008AC06F8078847624672476242AEFC22E8A
:10295000DD24DA946114710409F47DC0D12CC12CFA
:102960008D819E81982789279827C816D906F8F463
:1029700041E050E0BE01635F7F4FC8010E94C51176
:102980004D85442331F050E070E060E0C8010E94C2
:10299000C5118D858111ECCF44E050E070E060E01E
:1029A000C8010E94C511FFEFCF1ADF0AD9CF912CC1
:1029B000812C41E050E0BE016D5E7F4FC8010E9456
:1029C000C5114B89842F807C09F06CC0442331F001
:1029D00050E070E060E0C8010E94C5118B89811150
:1029E000E8CF42E050E0BE01615F7F4FC8010E9426
:1029F000C51142E050E0BE01635F7F4FC8010E94F5
:102A0000C51144E050E070E060E0C8010E94C511CB
:102A100042E050E0BE016F5E7F4FC8010E94C511C9
:102A20008F85988949895A898115914009F043C059
:102A3000CD84DE84DC24CD24DC2481E0C816D104DE
:102A4000D1F54115544009F04AC044E050E0B201CC
:102A5000C8010E94C51121E0A21AB10809F46CCE88
:102A6000FFEFCF16DF0609F067CE0E9411033B018E
:102A70004C01C8010E94CC12181619060CF421CF83
:102A80000E94110366197709880999096938734109
:102A90008105910548F562E370E080E090E00E94D6
:102AA000DF02E7CF41E050E070E060E0C8010E9443
:102AB000C5111B8A93CF54274527542770E060E047
:102AC000C8010E94C511FFEF8F1A9F0A681479048C
:102AD00009F06FCF96EFC92EDD24DA94BCCFE7EF73
:102AE000CE2EDD24DA94B7CFCC24CA94DC2CB3CF1D
:102AF0006EEFC62EDD24DA94AECF4CEFC42EDD246B
:102B0000DA94A9CF8EEFC82EDD24DA9430CED12C02
:102B1000C12C2DCECF92DF92EF92FF920F931F9395
:102B2000CF93DF93CDB7DEB7AF970FB6F894DEBF84
:102B30000FBECDBF7C016A010DE911E01A83098344
:102B40001C861B8688EE93E0A0E0B0E08D879E8710
:102B5000AF87B88B83E291E09A878987188F0F8BB4
:102B6000198E1A8E1B8E1C8E84E089A31BA70AA7C0
:102B70001CA61DA61EA61FA68091140590911505E2
:102B8000A0911605B09117058EA39FA3A8A7B9A77A
:102B90008B839C83AD83BE8318861F82AE01465D06
:102BA0005F4FCE0101960E942A1381309105B1F446
:102BB000D701ED91FC910488F589E02D1DA30CA3AC
:102BC0008CA59DA5AEA5BFA58EA39FA3A8A7B9A7B9
:102BD000A601BE016C5D7F4FC7010995AF960FB688
:102BE000F894DEBF0FBECDBFDF91CF911F910F9143
:102BF000FF90EF90DF90CF900895CF92DF92EF9209
:102C0000FF920F931F93CF93DF93CDB7DEB7AF97AC
:102C10000FB6F894DEBF0FBECDBF8C016B017A01F9
:102C20008DE991E09A8389831B821C821D821E821A
:102C30001C861B8648EE53E060E070E04D875E879F
:102C40006F87788B23E231E03A872987988F8F8BC3
:102C5000198E1A8E1B8E1C8E24E029A39BA78AA78F
:102C60001CA61DA61EA61FA6D8011C968C918430FA
:102C700060F40E94840B882321F0F80184850E946F
:102C80005F0B84E0D8011C968C9380911405909181
:102C90001505A0911605B09117058EA39FA3A8A7AF
:102CA000B9A78B839C83AD83BE8318861F82AE0138
:102CB000465D5F4FB601CE0101960E942A13009730
:102CC000C1F0D801ED91FC910684F785E02D8DE9E6
:102CD00091E09DA38CA38CA59DA5AEA5BFA58EA3B9
:102CE0009FA3A8A7B9A7A701BE016C5D7F4FC8012C
:102CF0000995AF960FB6F894DEBF0FBECDBFDF913A
:102D0000CF911F910F91FF90EF90DF90CF9008959A
:102D1000FB0101900020E9F73197AF01461B570BEB
:102D2000DC01ED91FC910280F381E02D09948F92FA
:102D30009F92AF92BF92EF92FF920F931F93CF9308
:102D4000DF93CDB7DEB7A1970FB6F894DEBF0FBE05
:102D5000CDBF7C01FA01CB0119A2223008F42AE090
:102D60008E010F5D1F4F822E912CB12CA12CBF0123
:102D7000A50194010E944F2EF901CA016A300CF599
:102D8000605DD8016E938D01232B242B252B79F7C1
:102D900090E080E0109721F0BD01C7010E948816E5
:102DA000A1960FB6F894DEBF0FBECDBFDF91CF91D5
:102DB0001F910F91FF90EF90BF90AF909F908F90D9
:102DC0000895695CDECF8F929F92AF92BF92CF92AF
:102DD000DF92EF92FF920F931F93CF93DF937C01CB
:102DE000EB016C0182E0C80ED11C4701E5E08E0EBC
:102DF000911C10E000E0F60141916F0150E070E09D
:102E000060E02AE0CE010E9497165C01E881F9811A
:102E10000190F081E02D6EE2CE0109958A0D9B1D97
:102E2000080F191FC814D90431F7F701458150E084
:102E300070E060E02AE0CE010E949716800F911F9B
:102E4000DF91CF911F910F91FF90EF90DF90CF9086
:102E5000BF90AF909F908F900895CF93DF93D0E075
:102E6000C0E0009731F0BC0181E594E00E94881633
:102E7000EC016BEB71E081E594E00E9488168C0F09
:102E80009D1FDF91CF910895CF92DF92EF92FF9235
:102E90000F931F93CF93DF93CDB7DEB728970FB66D
:102EA000F894DEBF0FBECDBF009101041091020463
:102EB000C8010E943005811113C1D80114968D916B
:102EC0009C91DC01ED91FC910688F789E02D099534
:102ED000882309F450C081E090E0F8019787868745
:102EE00087E0E8E1F1E0DE01119601900D928A950C
:102EF000E1F7FE01319685E090E02191D801169628
:102F00004D915C91DA01A80FB91F2C9301968C307A
:102F1000910599F7D8011696ED91FC91179782E8E3
:102F200084871696ED91FC9117971B968C911B97B1
:102F300085871696ED91FC9117971A968C911A97A2
:102F400086871896ED90FC90B7018EEB91E00E9479
:102F500001294196F801E816F90608F041C084817C
:102F60009581DC01ED91FC910488F589E02D0995AE
:102F70008BE192E005C1D80191966D917C91929779
:102F800014968D919C91DC01ED91FC91D801939662
:102F90004D915C9194976115710569F00088F189F4
:102FA000E02D0995019709F496CF8EEF9FEFF80178
:102FB00090A787A3DDCF0684F785E02D2DE931E0CA
:102FC0003A8329835D96CD90DD90ED90FC909097AB
:102FD000CB82DC82ED82FE82BE016F5F7F4FE1CF4C
:102FE000668177814FE050E08EEB91E00E948A018C
:102FF0007C01D8011896CD90DC90B60180ED91E06F
:103000000E9401298E0D9F1D0296F801C816D9064F
:1030100008F4A5CF66817781A70180ED91E00E9439
:103020008A019C0125503109D80116964D915C9179
:1030300060E1C8010E9465050E941103F801608BE0
:10304000718B828B938B648B758B868B978BF8013E
:1030500084819581DC01ED91FC910084F185E02D66
:103060000995892BF9F40E941103F801C488D588C9
:10307000E688F7889B01AC012C193D094E095F09D0
:1030800069017A0124853585A8EEB3E00E94712E8E
:10309000C616D706E806F906D0F28CEF9FEF90A788
:1030A00087A35DCFBE01685F7F4FC8010E944E06B7
:1030B000643071058105910509F078C0D801169634
:1030C000ED91FC911797838181116BC00E941103D0
:1030D000F801648B758B868B978B108E10A617A2C8
:1030E00085EE91E00E942D170091010410910204D9
:1030F000D8011896ED90FC90B70180EF91E00E9406
:1031000001290996E816F906C8F1C8010E943005A0
:103110008823A1F1F80186859785019609F448C0B6
:1031200097878687D8011696ED91FC9117971F9681
:103130008C911F9785831696ED91FC9117971E969B
:103140008C911E97868316966D917C9147E050E096
:1031500080EF91E00E948A01D8011696ED91FC91D2
:103160001797E80FF91F10829C0124503109169619
:103170004D915C9162E8C8010E9465058CE092E087
:103180000E942D1728960FB6F894DEBF0FBECDBF54
:10319000DF91CF911F910F91FF90EF90DF90CF9033
:1031A000089590E098969C938E939797F801D7CEC8
:1031B00081E090E097878687B5CF3F924F925F92EC
:1031C0006F927F928F929F92AF92BF92CF92DF9237
:1031D000EF92FF920F931F93CF93DF93CDB7DEB79C
:1031E000EA970FB6F894DEBF0FBECDBF7C012A016F
:1031F0003B0169010E9411034B015C0187010D5BDA
:103200001F4FC8010E94CC12181619069CF00E948C
:103210001103681979098A099B0946165706680639
:10322000790608F466C162E370E080E090E00E94F5
:10323000DF02E7CF42E250E0BE016F5F7F4FC8017F
:103240000E94C51189818230D1F0312C832DEA96FC
:103250000FB6F894DEBF0FBECDBFDF91CF911F91A7
:103260000F91FF90EF90DF90CF90BF90AF909F9025
:103270008F907F906F905F904F903F900895F801EE
:10328000848995898334910501F76D817E818F81D1
:1032900098850E944C304B015C01F601808291823E
:1032A000A282B38246E050E0B701685F7F4FCE0153
:1032B0004D960E947E31892B41F6F70180819181E4
:1032C000A281B38188169906AA06BB0608F4BDCF71
:1032D00084819581A681B78188159905AA05BB05CA
:1032E00008F4B3CF89899A89AB89BC898687978787
:1032F000A08BB18B4EEC50E070E060E0C8010E9402
:10330000C511312CC701829698AB8FA7F701B696ED
:10331000FAABE9AB08969CAB8BAB67019AE1C90E9F
:10332000D11CBD96FEABEDABC701429698AF8FABFB
:10333000FD97FAAFE9AF4701FEE18F0E911CF8014E
:10334000818D928D181619060CF080CFC8010E944D
:10335000E4118333910509F4B2C014F5813091056D
:1033600009F464C044F4892B51F3C8010E94E411AC
:10337000AC01552775C08330910509F462C00697EA
:10338000A1F7C8010E94E411B82E44E050E0B40156
:10339000C8010E94C511EB2DE450FF0BAF0160C0C6
:1033A0008A33910509F45FC084F585339105B1F145
:1033B000C697D9F6C8010E94E4115C01B601CE019E
:1033C00089960E9485128BA59CA5ADA5BEA5892BCB
:1033D0008A2B8B2BB1F0EDA9FEA940805180628031
:1033E0007380B601CE0183960E9485128DA19EA1A5
:1033F000AFA1B8A5A501481659066A067B0609F0D3
:10340000B8CF44E050E0B60118C08B33910509F401
:1034100040C08F3F910509F492CFA7CFC8010E9409
:10342000E411C8010E94E411382E89CFC8010E941E
:10343000E41144E050E06FA978ADC8010E94C511C5
:103440007ECFC8010E94E411B82E44E050E069AD7F
:103450007AADC8010E94C5118B2D8450990BAC0127
:1034600070E060E0EACFC8010E94E41144E050E05F
:1034700069A97AA9C8010E94C511F70166A177A1BF
:1034800080A591A50E944C3066A377A380A791A741
:1034900056CFC8010E94E41144E050E06BA97CA91A
:1034A000C8010E94C511F70162A573A584A595A561
:1034B0000E944C3062A773A784A795A740CFC8018C
:1034C0000E94E41144E050E06FA578A9C8010E9471
:1034D000C511F70162A173A184A195A10E944C308E
:1034E00062A373A384A395A366A777A780AB91ABD0
:1034F00026CF33243A94AACE7F928F929F92AF9296
:10350000BF92CF92DF92EF92FF920F931F93CF93D0
:10351000DF93CDB7DEB7A6970FB6F894DEBF0FBE28
:10352000CDBF8C01762E942E852E20E2A22ECE01C8
:1035300001967C01DC01EA2D1D92EA95E9F768010C
:10354000F3E4CF0ED11C8DE991E09AA389A38FEF0C
:103550008BA38CA38DA38EA343E450E0BE016F5DCB
:103560007F4FC6010E945F09019609F4BFC081E048
:1035700089838A8386E0B82EBB821C82D801149688
:103580006D917D918D919C9117970E944C306D8328
:103590007E838F83988789869A8680E890E09C87CF
:1035A0008B874CE150E0B701C6010E94F00FFE018D
:1035B00037968AE1DF011D928A95E9F74801B8E064
:1035C0008B0E911CF401D70101900D92BA94E1F792
:1035D00040E150E0B701C6010E94F00FF7011192DF
:1035E000AA94E9F796E0A92EB12C40E250E0B70189
:1035F000C6010E94F00FF1E0AF1AB108B1F783E6FF
:10360000898392E89A8393E59B838C8385E38D83FA
:1036100081E08E837F829DE3988797E099878A87F0
:1036200086E0F401DE011B9601900D928A95E1F788
:103630008CE0898B8A8B68E272E0CE0143960E940F
:10364000B831D8011B966C91CE0149960E94AF010A
:10365000F8016485CE014B960E94AF01D8011D96FA
:103660006C91CE014D960E94AF014EE150E0B70142
:10367000C6010E94F00FB3E07B121EC082E3898373
:1036800084E08A83F80196859B8397859C83908943
:103690009D8391899E8396E39F838887828D898706
:1036A000838D8A87848D8B87858D8C874CE050E055
:1036B000B701C6010E94F00F87E3898386E08A8301
:1036C00091E09B8393E09C838D838FE08E838AE3DC
:1036D0008F838BE388878FEF898749E050E0B701BC
:1036E000C6010E94F00FC6010E94EB0BA6960FB612
:1036F000F894DEBF0FBECDBFDF91CF911F910F9128
:10370000FF90EF90DF90CF90BF90AF909F908F9001
:103710007F9008952F923F924F925F926F927F9287
:103720008F929F92AF92BF92CF92DF92EF92FF92D1
:103730000F931F93CF93DF9300D000D000D0CDB76D
:10374000DEB78C010E949B282FEC37E040E050E070
:103750000E94E62DDC01CB010196A11DB11DF801EF
:1037600084839583A683B78380839183A283B38365
:103770005801F3E4AF0EB11CC5010E94770B64E45D
:1037800070E0C5010E94E00E882309F445C10E9443
:1037900011032B013C01480182E4880E911C48EE84
:1037A000C42E43E0D42EE12CF12C52E0252E1E82B3
:1037B0001D82D4018C918330B1F1811166C0F80172
:1037C00084819581A681B7810196A11DB11D848355
:1037D0009583A683B7830E9411036419750986092E
:1037E0009709A70196010E944F2EA90161E0C80127
:1037F0000E947C1A81E0D4018C938D819E81019777
:10380000C1F20E9411036419750986099709D8014C
:10381000D6962D913D914D915C91D99726173707FA
:103820004807590720F6C5010E94770BF8018481EB
:103830009581A681B7810196A11DB11D84839583D1
:10384000A683B7830E941103F801FE9660837183FB
:10385000828393838D819E8126960FB6F894DEBF76
:103860000FBECDBFDF91CF911F910F91FF90EF90D1
:10387000DF90CF90BF90AF909F908F907F906F9090
:103880005F904F903F902F9008958430F1F4F801AD
:1038900084819581A681B7810196A11DB11D848384
:1038A0009583A683B7830E9411036419750986095D
:1038B0009709A70196010E944F2EA90163E0C80154
:1038C0000E947C1AD4012C9298CF813051F5F801D6
:1038D00042AD53AD64AD75AD9E012F5F3F4FC80142
:1038E0000E94DD18382EF2E08F1390C089819A81F2
:1038F000AB81BC81F80184839583A683B7830E9442
:1039000011036419750986099709A70196010E9498
:103910004F2EA90163E0C8010E947C1AD4013C9299
:103920006CCF823009F069CFF80142AD53AD64AD80
:1039300075AD9E012F5F3F4FC8010E94DD18382EE4
:10394000F5E08F135DC0E3E0D401EC93F80182A1B0
:1039500093A1A4A1B5A1892B8A2B8B2B41F484E8D8
:1039600093E0A0E0B0E082A393A3A4A3B5A3F801E1
:1039700086A197A1A0A5B1A5892B8A2B8B2B61F4D9
:1039800082A193A1A4A1B5A1B695A7959795879576
:1039900086A397A3A0A7B1A7F80182A593A5A4A584
:1039A000B5A5892B8A2B8B2BA9F482A193A1A4A165
:1039B000B5A1AC01BD0123E0769567955795479574
:1039C0002A95D1F7841B950BA60BB70B82A793A75B
:1039D000A4A7B5A7F80186A197A1A0A5B1A586A720
:1039E00097A7A0ABB1AB82A593A5A4A5B5A582ABC3
:1039F00093ABA4ABB5AB81E090E09E838D83FDCE0D
:103A000096E0891303C0D4011C92F7CEBFEF3B129E
:103A1000F4CEF4011082F1CE1E821D821BCFBF9224
:103A2000CF92DF92EF92FF920F931F93CF93DF938A
:103A3000CDB7DEB760970FB6F894DEBF0FBECDBF2F
:103A40006C017A018091C1029091C202892B99F197
:103A5000B090BE028B2D90E04817590720F07C01F2
:103A600021E0E21AF1080091BF021091C002A70103
:103A7000C8010E948B31F801EE0DFF1D10826FE22C
:103A800070E0C6010E94CE31009729F1BC016F5F42
:103A90007F4F4FE050E0CE0101960E94BF31188A5F
:103AA00062E472E0C8010E94D9310097B1F4CE01FE
:103AB00001960E94850A60960FB6F894DEBF0FBE8D
:103AC000CDBFDF91CF911F910F91FF90EF90DF90CD
:103AD000CF90BF9008951982E2CF7C012AE0E20ED8
:103AE000F11C62E270E0C7010E94AD31892BF9F24E
:103AF0006DE472E0C8010E94D9316C01892B19F084
:103B000089E0C80ED11C48E050E066ED71E0C701C5
:103B10000E94F328892BB9F5C114D10481F167E51E
:103B200072E0C6010E94D931892B49F181E080936E
:103B3000FD03FF24F3946F2D84E00E94500288E37C
:103B400092E0FF2011F08FE292E09F938F9384E840
:103B500091E09F938F931F92BF921F930F930E94A8
:103B60000C296091BF027091C002CE0101960E94A3
:103B7000350A0FB6F894DEBF0FBECDBF9CCF1092B2
:103B8000FD03F12CD8CF49E050E06CEC71E0C701A7
:103B90000E94F328892B09F08ACF0E94110328EE96
:103BA00033E040E050E00E944F2E5F934F933F93ED
:103BB0002F938091FD031F928F9383EA91E09F934F
:103BC0008F931F92BF921F930F930E940C29C9CF0E
:103BD0000C94F5301F920F920FB60F9211242F9371
:103BE0003F938F939F93AF93BF9380912C049091B9
:103BF0002D04A0912E04B0912F0430912B0423E0CA
:103C0000230F2D3758F50196A11DB11D20932B04CC
:103C100080932C0490932D04A0932E04B0932F0432
:103C20008091300490913104A0913204B09133041A
:103C30000196A11DB11D8093300490933104A0938F
:103C40003204B0933304BF91AF919F918F913F9114
:103C50002F910F900FBE0F901F90189526E8230FFD
:103C60000296A11DB11DD2CF1F920F920FB60F92D7
:103C700011242F933F934F935F936F937F938F9371
:103C80009F93AF93BF93EF93FF9381E594E00E94DE
:103C9000A104FF91EF91BF91AF919F918F917F917F
:103CA0006F915F914F913F912F910F900FBE0F90A9
:103CB0001F9018951F920F920FB60F9211242F93F9
:103CC0008F939F93EF93FF93E0916104F0916204CF
:103CD0008081E0916704F091680482FD1BC09081AF
:103CE00080916A048F5F8F7320916B04821741F07B
:103CF000E0916A04F0E0EF5AFB4F958F80936A04DD
:103D0000FF91EF919F918F912F910F900FBE0F9088
:103D10001F9018958081F4CF0F931F93CF93DF935B
:103D2000E1E5F4E01382128248EE53E060E070E0D7
:103D300044835583668377838DE491E09183808308
:103D400085EC90E09587848784EC90E09787868760
:103D500080EC90E0918B808B81EC90E0938B828B58
:103D600082EC90E0958B848B86EC90E0978B868B31
:103D7000118E128E138E148EEEEEF4E08DE991E02A
:103D8000918380831282138214821582E4EFF4E01F
:103D9000918380831282138214821582EAEFF4E009
:103DA000918380831282138214821582E0E0F5E011
:103DB000918380831282138214821582E6E0F5E0FB
:103DC000918380831282138214821582ECE0F5E0E5
:103DD000918380831282138214821582E8E1F5E0D8
:103DE000918380831282138214821582E2E1F5E0CE
:103DF000918380831282138214821582EEE1F5E0B2
:103E0000918380831282138214821582E4E2F5E0AA
:103E1000918380831282138214821582EAE2F5E094
:103E2000918380831282138214821582E0E3F5E08D
:103E3000918380831282138214821582E6E3F5E077
:103E4000918380831282138214821582ACE3B5E0E1
:103E500022E015962C93159726E116962C9316972B
:103E6000EAEAF2E0E4911796EC931797E6E9F2E0BC
:103E7000E4911896EC93189700E81EE320E030E0F8
:103E80001D960D931D932D933C935097E7E8F5E015
:103E9000918380831282138214821582E8E7F5E011
:103EA0001382128244835583668377832BE631E045
:103EB0003183208324E0248728EE33E0368725876A
:103EC000CFE4D5E01B821A822FE531E039832883C5
:103ED0009C8F8B8F1D8E1E8E1F8E18A28FEF9FEFD3
:103EE00098A78FA3FD83EC831EA21DA280E091E022
:103EF0000E9459309F838E8380E091E09987888764
:103F00008FE090E09B878A879D878C87DF91CF9198
:103F10001F910F910895CF93DF93CDB7DEB76797C9
:103F20000FB6F894DEBF0FBECDBF789484B5826023
:103F300084BD84B5816084BD85B5826085BD85B54D
:103F4000816085BD80916E00816080936E001092CB
:103F50008100809181008260809381008091810046
:103F600081608093810080918000816080938000D7
:103F70008091B10084608093B1008091B000816035
:103F80008093B00080917A00846080937A00809161
:103F90007A00826080937A0080917A0081608093B9
:103FA0007A0080917A00806880937A001092C10034
:103FB000E0916104F091620482E08083E0915D040D
:103FC000F0915E041082E0915F04F09160048FEC48
:103FD000808310926904E0916504F091660486E0A4
:103FE0008083E0916304F091640480818061808328
:103FF000E0916304F0916404808188608083E091A3
:104000006304F0916404808180688083E09163049C
:10401000F091640480818F7D80836CE572E081E59E
:1040200094E00E94881660E083E00E947E0262E0D5
:1040300087E00E947E0262E0809141050E947E023C
:104040000E941103605D77408109910960934505E5
:1040500070934605809347059093480587E38093C6
:104060004E0510920C0410920D0410920E04109242
:104070000F04109210041092110410921204109266
:104080001304109214041092150410921604109246
:1040900017041092180461E085E00E947E0261E03E
:1040A00086E00E947E0261E088E00E947E0261E07C
:1040B00084E00E947E0260E085E00E94500260E0A1
:1040C00086E00E94500261E088E00E94500260E0B9
:1040D00084E00E9450024FE253E05093FF0340936C
:1040E000FE0328EC209300048FE495E09093C20235
:1040F0008093C1025093C0024093BF022093BE023E
:104100002FE03DE130936905209368059093020408
:10411000809301048091270381112AC010920F031C
:1041200010920E0388EE93E0A0E0B0E080931003BD
:1041300090931103A0931203B093130383E291E0D1
:1041400090930D0380930C038DE991E090931B03F2
:1041500080931A0310921C0310921D0310921E03E9
:1041600010921F0384E08093240381E0809327034F
:1041700089EC92E09093F8038093F7038091C80252
:104180008111ADC060E372E080E090E00E94DF0248
:10419000DFB6F8940EE912E0B2EBEB2EB2E0FB2EA4
:1041A0008091C602811125C0F8018491F701949194
:1041B000E82FF0E0EE0FFF1FEE59FD4FA591B491EF
:1041C0008C91982321F461E08AE00E94500261E022
:1041D0008AE00E947E028CB580618CBD8CB58064C3
:1041E0008CBD61E08DE00E947E0261E08BE00E9468
:1041F0007E028091C6028F5F8093C602DFBEF80107
:104200000491E02FF0E0EE0FFF1FE459FD4F859180
:1042100094919093C5028093C402F701E490E092D8
:10422000C30261E08AE00E947E020E94DA0780E514
:1042300091E00E94AC0184E38093500480E80E94E6
:10424000A6080E942F0C882309F4F5C088E00E947C
:10425000A6080E941C0C883009F0EDC080E10E9485
:10426000A6080E941C0C803109F0E5C080E00E9485
:10427000A6080E941C0C182F8111DDC041E050E0FF
:10428000BE016F5F7F4F8FE190E00E94A70A898196
:10429000833009F0D0C080E48093C70242E06EE131
:1042A00070E0812F0E94020942E06FE170E0812FEF
:1042B0000E9402091F5F143089F740E06EE170E050
:1042C000812F0E94020940E06FE170E0812F0E947F
:1042D00002091F5F183089F781E08093C80280E5EA
:1042E00091E00E94AC0146E050E060E071E089E0BE
:1042F00090E00E94F6078DE991E09A8389831B8202
:104300001C821D821E82CE0103960E945709809155
:10431000F7039091F803DC0192961D921D921D9275
:104320001C929597FC0116A217A210A611A69A96A8
:104330001D921D921D921C929D9740E65AEE60E0E0
:1043400070E046AB57AB60AF71AF40EA5FE060E052
:1043500070E0DA964D935D936D937C93DD973E9676
:1043600024E1DF011D922A95E9F726E0E0E0F1E083
:10437000DC01189601900D922A95E1F7FC01EE5BA5
:10438000FF4F10820E948A1B019709F0BDC080E593
:1043900091E00E94AC010091F7031091F803B8017D
:1043A000625F7F4FCE0101960E948512CE01039677
:1043B0000E945709B8016A5E7F4FCE0101960E94A4
:1043C000851244E050E0BE016D5F7F4F81E090E0D8
:1043D0000E94F607B8016E5E7F4FCE0101960E94E3
:1043E000851244E050E0BE016D5F7F4F85E090E0B4
:1043F0000E94F607B801625E7F4FCE0101960E94CF
:1044000085128B819C81AD81BE8180931405909330
:104410001505A0931605B09317050E94BA027F7385
:104420008091060190910701682779277093070111
:104430006093060169C087E38093500480E80E947E
:10444000A6080E942F0C882329F188E00E94A60864
:104450000E941C0C8830F1F480E10E94A6080E94A2
:104460001C0C182F8031B1F480E00E94A6080E9435
:104470001C0C81110FC041E050E0BE016F5F7F4F07
:1044800089E390E00E94A70A8981843019F410938F
:10449000C70222CF83E38093500480E80E94A608DD
:1044A0000E942F0C882371F180E10E94A6080E94CF
:1044B0001C0C803139F582E10E94A6080E941C0C78
:1044C000823101F580E00E94A6080E941C0C811137
:1044D00019C084E08093C70215E51A8B41E050E0D3
:1044E000BE016E5E7F4F8BE190E00E94F607198B54
:1044F00041E050E0BE016F5E7F4F8AE190E00E9494
:10450000F607EACE1092500460ED77E080E090E08C
:104510000E94DF02E0910104F091020480E792E042
:1045200092A381A38BE597E094A383A30E944417F1
:10453000FE0131961F019E01275F3F4F3C8B2B8B65
:104540000091F7031091F8030115110509F4CEC08D
:104550000E9411034B015C0178013EE3E30EF11C64
:10456000F70180819181A281B381A5019401281B6B
:10457000390B4A0B5B0BCA01B901683E33E0730784
:1045800081059105A0F128EE33E040E050E00E9463
:104590004F2E861A970AA80AB90AD7018D929D92C2
:1045A000AD92BC921397F80186A597A5A0A9B1A9D1
:1045B00069017A01CC0CDD1CEE1CFF1C8C159D05DD
:1045C000AE05BF0508F023C116A617A610AA11AAAA
:1045D000F80182A993A9A4A9B5A98C159D05AE05DA
:1045E000BF0508F01DC112AA13AA14AA15AAF80142
:1045F00086A597A5A0A9B1A9892B8A2B8B2B09F099
:1046000018C1EE5BFF4F8081833009F012C144E096
:10461000C42EC082C8010E948A1B0196D801D2967E
:104620004D915D916D917C91D597452B462B472BF4
:10463000A9F4F801EE5BFF4F2081233011F0211126
:104640000DC01082F8013E96DF0134E1C32E1D92A9
:10465000CA94E9F7C8010E948A1B0396823091052B
:1046600019F0049709F042C080E591E00E94AC0186
:104670000091F7031091F803B801625F7F4FC10109
:104680000E948512CE0103960E945709B8016A5E06
:104690007F4FC1010E94851244E050E0BE016D5F72
:1046A0007F4F81E090E00E94F607B8016E5E7F4F79
:1046B000C1010E94851244E050E0BE016D5F7F4F52
:1046C00085E090E00E94F607B801625E7F4FC1016D
:1046D0000E9485128B819C81AD81BE8180931405DF
:1046E00090931505A0931605B093170580910104CA
:1046F000909102040E943005882309F4A5C100911D
:10470000010410910204C8010E943005882309F4B5
:1047100047C00E9411036B017C01D8011A962D91AC
:104720003C91A8EEB3E00E94712EF8018488958830
:10473000A688B788A7019601281939094A095B0993
:1047400049015A01681579058A059B0590F0808812
:104750009188A288B388A7019601281939094A09C6
:104760005B0949015A01681579058A059B0508F01E
:1047700089C0D80158968C915897882309F45CC059
:10478000ECEFFFEF9896FC93EE93979714968D912C
:104790009C91DC01ED91FC910488F589E02D09954F
:1047A0000E9411032B013C01809127049091280461
:1047B000A0912904B0912A0473016201C81AD90A90
:1047C000EA0AFB0AD701C601803D9740A105B10561
:1047D00008F49EC240922704509228046092290453
:1047E00070922A040E941D03882351F08091420593
:1047F0008C3009F4A6C108F04AC18B3009F461C1BC
:10480000C12CD12C40ECE42E4FE7F42E84C1821B46
:10481000930BA40BB50B86A797A7A0ABB1ABD8CED3
:10482000821B930BA40BB50B82AB93ABA4ABB5ABC4
:10483000DECE90E080E0F2CE1696ED91FC911797D7
:1048400080EC80831696ED91FC9117971182149657
:104850008D919C91159716966D917C91DC01ED914F
:10486000FC910280F381E02D42E050E00995F801CF
:10487000C08AD18AE28AF38AC48AD58AE68AF78A0C
:1048800081E0808FF80184819581DC01ED91FC91BC
:104890000084F185E02D0995892B09F481CFB101C0
:1048A000C8010E944E062B01672B09F4C9C0F8010C
:1048B000C48AD58AE68AF78A0680F781E02D80814E
:1048C000807F803309F09BC0D80159968D919C91CF
:1048D000892B09F465CF498150E0CA0102968E0FF9
:1048E0009F1FDF01A40FB51F11968C90912C982C5F
:1048F0008824DC016C91860E911C4D5F5F4FBF01D7
:10490000640F751FA4010E949431E981D8011696A5
:104910008D919C911797880D991DE80FF92FF11D26
:10492000128216960D90BC91A02D298130E0C9010C
:1049300002968A0F9B1F4C9146704F8BF801A18CF9
:10494000B28C423009F049C0B401620F731FFD01FF
:10495000E60FF71F438150E0542F4427E4814E0FA8
:10496000511D5E8B4D8B4BEF5FEF421B530B481974
:104970005909440D551D6B5F7F4F6A0F7B1FF50171
:104980000995D8011696ED91FC91179780E48083E4
:104990001696ED91FC91BF89B183D8011696ED91E1
:1049A000FC91BE89B283D8011696ED91FC91BD8928
:1049B000B383F8018481958166817781DC01ED9173
:1049C000FC910280F381E02D44E050E00995F8016C
:1049D000C08AD18AE28AF38AE3CE4DEF5FEF421BB1
:1049E000530B48195909440D551D2D5F3F4F280D94
:1049F000391DBD01620F731FF5010995D1CE803CB1
:104A0000C9F480ED8083D8011696ED91FC9117973B
:104A1000118214968D919C91159716966D917C91AB
:104A2000DC01ED91FC910280F381E02D42E050E049
:104A30000995B6CE803D09F0B3CEF801108EB0CE08
:104A4000C8010E943005ACCE0E9411030091F90309
:104A50001091FA032091FB033091FC036B017C0160
:104A6000C01AD10AE20AF30A9701860108381341F5
:104A70002105310508F494CE6093F9037093FA038D
:104A80008093FB039093FC030E94441789CE8551C9
:104A9000823008F0B5CE10913E05612F70E0762F80
:104AA000662766277F7780913F05682B90E080E03E
:104AB0000E94232F2DEC3CEC4CEC5DE30E94B62FC2
:104AC0005CC060913E0570E090E080E00E94232F82
:104AD0006B017C0110913F0517FF0AC0AC019B01DF
:104AE00060E070E080E89FEB0E94802E6B017C010B
:104AF0001F70612F70E090E080E00E94252F2DEC68
:104B00003CEC4CEC5DE30E94B62FA70196010E949D
:104B1000812E6B017C010E941D03882309F465C06E
:104B2000809142058B3030F08D3080F1855182309C
:104B300008F4B1C1812C912C30ECA32E3FE7B32EA9
:104B400043C010913E05612F70E090E080E00E942C
:104B5000232F6B017C0160913F056F7070E090E046
:104B600080E00E94252F2DEC3CEC4CEC5DE30E9494
:104B7000B62FA70196010E94812E6B017C0117FFC1
:104B8000CACFF7FAF094F7F8F094C5CF60913D05DD
:104B900070E090E080E00E94252F2DEC3CEC4CEC86
:104BA0005DE30E94B62F4B015C0160913C0570E013
:104BB00090E080E00E94252F9B01AC01C501B4016B
:104BC0000E94812E4B015C01A7019601C701B6012D
:104BD0000E942330811109C0A5019401C501B401CF
:104BE0000E942330882309F468C181E08093260461
:104BF00080910C0490910D04A0910E04B0910F04CB
:104C00008093190490931A04A0931B04B0931C047E
:104C10008091100490911104A0911204B09113049A
:104C200080931D0490931E04A0931F04B09320044E
:104C300083E00E9427028C010E94110301301105BC
:104C400009F0B0C121E020931404605F784D8F4FCC
:104C50009F4F6093150470931604809317049093EC
:104C60001804809114048093230487E00E94270293
:104C700021E0892B09F020E02093240494E0F92E10
:104C800010E000E020E4E22EE0927C0080917A00C7
:104C9000806480937A0080917A0086FDFCCF8091B9
:104CA000780090917900080F191F62E070E080E0B1
:104CB00090E00E94DF02FA94F110E6CF1695079576
:104CC00016950795109322040093210481E00C327D
:104CD000114008F080E0809325041091FD0320E04E
:104CE00030E04AEA52E460911D0470911E04809104
:104CF0001F04909120040E94B12F87FD69C11111FA
:104D000007C081E08093FD0361E084E00E945002CF
:104D100080910104909102040E943005882309F4D7
:104D200097C08091080490910904A0910A04B09161
:104D30000B0473016201C81AD90AEA0AFB0AD701F7
:104D4000C60188389341A105B10508F481C040929D
:104D500008045092090460920A0470920B04F090C7
:104D6000FD036091190470911A0480911B049091C5
:104D70001C048E01075F1F4F21E041E00E94312893
:104D800060911D0470911E0480911F049091200475
:104D9000810121E041E00E943128809126041F9288
:104DA0008F93809124041F928F931F92FF92809182
:104DB00023041F928F93809125041F928F938091DB
:104DC00022048F93809121048F933F922F923C89EC
:104DD0003F934B894F938FED91E09F938F938091F9
:104DE00000041F928F938091FF038F938091FE03A5
:104DF0008F930E940C290091FE031091FF03E09015
:104E00000104F09002040FB6F894DEBF0FBECDBFD0
:104E100090E080E00115110539F0D70118966D91E9
:104E20007C91C8010E9401299C01A80167E872E0F9
:104E3000C7010E94D409882309F4D1C08FE992E008
:104E40000E942D178091FE039091FF030E942D1761
:104E50001091260480910104909102040E94300573
:104E60008111C0C061E088E00E94500260E085E0EE
:104E70000E94500260E086E00E94500280E090E0D4
:104E8000892B09F45DCB0E948D04882309F458CB4B
:104E90000E94000055CB60913C0570913D0576273E
:104EA0006727762790E080E00E94232F2DEC3CECD2
:104EB0004CEC5DE30E94B62F85CE1092260420E0D4
:104EC00030E040E251E4C701B6010E94B62F6B0109
:104ED0007C0120E030E0A9010E94B12F20E030E009
:104EE00040E05FE387FD54C0C701B6010E94812EF8
:104EF0000E94ED2E0E94252F2DEC3CEC4CEC5DE346
:104F00000E94B62F6B017C01C0921904D0921A0442
:104F1000E0921B04F0921C0420E030E040E251E4F7
:104F2000C501B4010E94B62F4B015C0120E030E0C6
:104F3000A9010E94B12F20E030E040E05FE387FD4F
:104F40002CC0C501B4010E94812E0E94ED2E0E944A
:104F5000252F2DEC3CEC4CEC5DE30E94B62F6093CA
:104F60001D0470931E0480931F0490932004C0922C
:104F70000C04D0920D04E0920E04F0920F046093A2
:104F8000100470931104809312049093130450CE74
:104F9000C701B6010E94802EABCFC501B4010E94AB
:104FA000802ED3CF20911404222309F45ACE0091ED
:104FB00015041091160420911704309118046017FD
:104FC00071078207930708F44CCE1092140449CE5F
:104FD000112309F49DCE1092FD0360E096CE8EEA77
:104FE00092E034CF60E088E00E945002112361F12A
:104FF00061E085E00E9450020E94110300910404C8
:105000001091050420910604309107046B017C0186
:10501000C01AD10AE20AF30A97018601053F11403E
:105020002105310508F42ACF609304047093050428
:10503000809306049093070461E08091030481113A
:1050400060E06093030417CF60E086E00E945002A6
:1050500061E085E011CF80915505909156050C9443
:10506000F530EF920F931F93CF93DF93E80134E075
:1050700047FD34E1042E000C550B57FF03C051953A
:1050800041955109E32E022F242FAE010E94162BC9
:10509000CE01DF91CF911F910F91EF9008958F92E4
:1050A0009F92AF92BF92CF92DF92EF92FF92CF93F7
:1050B000DF93EC01688179818A819B81611571059B
:1050C0008105910521F464E279ED8BE597E02DE10E
:1050D00033EF41E050E00E94E62D49015A019B0167
:1050E000AC01A7EAB1E40E94052E6B017C01ACEE95
:1050F000B4EFA50194010E94132EC60ED71EE81E20
:10510000F91EF7FE06C081E0C81AD108E10880E860
:10511000F80AC882D982EA82FB82C701B6019F776A
:10512000DF91CF91FF90EF90DF90CF90BF90AF9045
:105130009F908F9008958F929F92AF92BF92CF923F
:10514000DF92EF92FF9260910801709109018091C6
:105150000A0190910B01611571058105910521F4FA
:1051600064E279ED8BE597E02DE133EF41E050E02B
:105170000E94E62D49015A019B01AC01A7EAB1E466
:105180000E94052E6B017C01ACEEB4EFA5019401E9
:105190000E94132EC60ED71EE81EF91EF7FE06C08B
:1051A00081E0C81AD108E10880E8F80AC092080135
:1051B000D0920901E0920A01F0920B01C701B601F9
:1051C0009F77FF90EF90DF90CF90BF90AF909F9030
:1051D0008F900895609308017093090180930A01EC
:1051E00090930B010895FB01DC014150504030F0D9
:1051F0008D910590801919F40020B9F7881B990B3F
:105200000895FC016150704001900110D8F780951D
:1052100090958E0F9F1F0895AEE0B0E0E2E1F9E2B5
:105220000C94262E0D891E898F89988D2EE02C8353
:105230001A83098397FF02C080E090E801979E835C
:105240008D83AE01455E5F4F698D7A8DCE010196EB
:105250000E943C294D815E8157FD0AC02F8138850F
:10526000421753070CF49A01020F131FF801108222
:105270002E96E4E00C94422EABE0B0E0E2E4F9E2DA
:105280000C94182E7C013B018A01FC0117821682C6
:10529000838181FFC8C1CE0101965C01F701938132
:1052A000F30193FD859193FF81913F01882309F4D8
:1052B00053C1853239F493FD859193FF81913F016C
:1052C000853229F4B70190E00E94582DE7CF912C48
:1052D000212C312CFFE1F31538F08B3211F190F4D1
:1052E000803209F1833229F137FC3CC020ED280FD0
:1052F0002A3050F536FE20C08AE0989E200D1124F9
:10530000922E06C08D3291F0803371F7689430F898
:10531000F30193FD859193FF81913F018111DACFD4
:1053200021C0689431F8689432F8F2CF689433F869
:10533000EFCF689434F8ECCFEAE02E9E200D1124D4
:10534000222E689435F8E4CF8E3229F436FC04C15D
:10535000689436F8DDCF8C3619F4689437F8D8CFD6
:105360008836B1F2982F9F7D95549330E0F08336C4
:10537000A1F18337C1F1833509F063C02801F2E060
:105380004F0E511CF801C080D180692D70E036FCB1
:1053900002C06FEF7FEFC6010E944D2D4C01689453
:1053A00037F882010AC00C5F1F4FFFE3F98388249E
:1053B0008394912C6501E89437F833FE2DC0522C6C
:1053C0008114910471F5552009F468CFB70180E28A
:1053D00090E00E94582D5A94F6CFF801808189837D
:1053E0000E5F1F4FE4CF2801F2E04F0E511CF80171
:1053F000C080D180692D70E036FC02C06FEF7FEF76
:10540000C6010E9401294C018201D5CFB70180E27B
:1054100090E00E94582D2A942814190409F0B0F73E
:10542000CECFF60137FC859137FE81916F01B70130
:1054300090E00E94582D51105A94F1E08F1A910873
:10544000BFCF843619F0893609F077C0F80137FEEE
:105450006BC060817181828193810C5F1F4FF32D3E
:10546000FF763F2E97FF09C09095809570956195C6
:105470007F4F8F4F9F4F689437F82AE030E0A501A7
:105480000E94882DC82ECA188C2C432C36FE0CC0C6
:10549000E89440F8C91440F434FE05C032FC03C05F
:1054A000F32DFE7E4F2E892C44FE95C0FE01EC0D9F
:1054B000F11D8081803309F087C0242D297E422E82
:1054C000842D8870582E43FC95C040FE8FC09C2CC4
:1054D000821418F42C0C922C981844FE91C0B70139
:1054E00080E390E00E94582D42FE09C088E790E0DA
:1054F00041FE02C088E590E0B7010E94582DC91412
:1055000008F48AC0CA94D12C9FEFC91AD90ACA0CD0
:10551000DB1CF60182916F01B70190E00E94582DCB
:10552000AC14BD04B1F74FCF60817181072E000C20
:10553000880B990B0E5F1F4F92CFD32CE894D4F8B1
:105540002AE030E0853739F1232D297FD22E8F369E
:1055500001F148F48835A9F0F701868197812B96EF
:10556000E2E10C94342E803749F08837A9F7D4FE55
:1055700002C06894D2F820E130E00DC06894D4F8FD
:10558000F6CF34FE03C0822F8660D82E20E132E0B1
:1055900002C028E030E0F801D7FE0FC060817181C1
:1055A000828193810C5F1F4FA5010E94882DC82E18
:1055B000CA183D2CE89437F867CF6081718190E07C
:1055C00080E00E5F1F4FF0CF42FC02C0839478CF83
:1055D0008394839475CF842D867809F471CFF6CFA8
:1055E000B70180E290E00E94582D83948214C0F3AA
:1055F000512C73CF522C5818821408F46ECFF8CF68
:10560000842D867809F47BCF8BE241FE80E247FC53
:105610008DE2B70190E071CFB70180E390E00E9486
:10562000582D9A946CCF8FEF9FEF99CFA9E0B0E0FF
:10563000ECE1FBE20C941E2E6A01F22EB02E102F2C
:10564000FBE3AF2EA01608F41BE31F5F012F27E03A
:10565000AE014F5F5F4F0E94752CBC018981982F6E
:105660009970913009F43FC09BE2E1FC04C09E2D8B
:105670009170E0FC3AC05E2D5071E82FE87083FF16
:1056800046C084E0911101C083E0EF2DE81B8F1527
:1056900008F0E0E0D6018E2F20E2552351F1992346
:1056A00029F0D6019C93C60101966C0196012D5FED
:1056B0003F4FE2FE24C08EE4D6018C9391E4119614
:1056C0009C93119712968C93D9018E2F90E28111A1
:1056D0001BC0E20FF32FF11D10828EEF9FEF299672
:1056E000ECE00C943A2E9DE2C6CF90E2C4CF2D930D
:1056F00081508111FCCFCE0ED11CE0E0D0CF8EE6E0
:10570000D6018C9391E6DBCF9D938150E0CF482F5B
:10571000447082FF3DC084E0911101C083E08F1589
:1057200010F4EF2DE81BD6018E2F20E2552309F14E
:10573000992329F0D6019C93C60101966C0196012C
:105740002D5F3F4FE2FE1BC089E4D6018C938EE4AF
:1057500011968C93119786E412968C93D9018E2F13
:1057600090E2882309F4B5CF9D938150FACF2D9311
:1057700081508111FCCFCE0ED11CE0E0D9CF89E65B
:10578000D6018C938EE611968C93119786E6E4CF22
:105790009B0177FF02C030E020E0A1E0B0E0911172
:1057A00002C0B0E0A0E0F9013196AE0FBF1F8B2C14
:1057B000912CBB2009F461C05401EFEFAE1ABE0A70
:1057C000AA0DBB1DFA161B0619F014F04F2D4A1B2B
:1057D000511188C0E3FC59C07601A42FB0E2A11199
:1057E0004FC0C40ED11C992309F45BC040E0D60120
:1057F0001196F60190836D01552309F448C0012FDD
:10580000060F9A81582F507184FF03C0913309F419
:10581000015010160CF047C0093008F008E0EEE225
:10582000FE2E5B01A01AB108850191948194910824
:105830002F3F320729F4D601FC92F60131966F0111
:105840006217730794F1021713077CF5DB01A21BA3
:10585000B30BAA24A394B12CAC0EBD1EAA0DBB1D84
:1058600011968C9121503109D601119628153905D0
:10587000F4F0F60180836D01DBCFB12CA12CA0CF19
:10588000F701B1937F01A150AACF9111B0CFD601FA
:10589000942F50E302C05D9391509111FCCFC40E40
:1058A000D11C40E0ACCF01E0BACF80E3DBCF621780
:1058B000730731F4963388F4953311F4552369F066
:1058C000F6018083FD01842F90E2811108C0A40FAE
:1058D000B11D1C9290E080E002CF81E3F1CF919363
:1058E0008150F3CF911183CF8ACF283008F027E081
:1058F0003327DA01990F311D87FD9160009661050C
:10590000710539F432602E5F3D9330E32A95E1F75B
:1059100008959F3F30F080387105610509F03C5FC4
:105920003C5F3D93913008F08068911DDF93CF93E9
:105930001F930F93FF92EF92192F987F9695E92F5F
:1059400096959695E90FFF27EE53FF4F992733273A
:10595000EE24FF24A701E70105900894079428F49A
:10596000360FE71EF81E491F511D660F771F881F4F
:10597000991F0694A1F70590079428F4E70EF81EE6
:10598000491F561FC11D770F881F991F661F069458
:10599000A1F70590079428F4F80E491F561FC71F5A
:1059A000D11D880F991F661F771F0694A1F70590D8
:1059B000079420F4490F561FC71FD81F990F661F61
:1059C000771F881F0694A9F784911095177041F0EE
:1059D000D695C79557954795F794E7941A95C1F7CB
:1059E000E8E6F0E0689415901591359165919591F0
:1059F00005907FE27395E118F10A430B560BC90B32
:105A0000D009C0F7E10CF11E431F561FC91FD01D5E
:105A10007EF4703311F48A95E6CFE894015030F0AB
:105A2000080F0AF40027021708F4202F2395022FED
:105A30007A3328F079E37D932A95E9F710C07D93B6
:105A40002A9589F606949795679537951795179433
:105A5000E118F10A430B560BC90BD00998F02395B6
:105A60007E9173957A3308F070E37C932013B8F736
:105A70007E9170617D9330F0839571E37D9370E347
:105A80002A95E1F71124EF90FF900F911F91CF918C
:105A9000DF91992787FD90950895FC01059061504D
:105AA00070400110D8F7809590958E0F9F1F089534
:105AB0000F931F93CF93DF93182F092FEB018B8147
:105AC00081FD09C01FEF0FEF812F902FDF91CF9144
:105AD0001F910F91089582FF14C02E813F818C8108
